:020000040800F2
:100000006020002065010008855D0008875D00080C
:10001000915D00089B5D0008A55D000800000000E0
:10002000000000000000000000000000AF5D0008BC
:10003000B15D000800000000B35D0008D37F000838
:100040007F0100087F0100087F0100087F01000890
:100050007F0100087F0100087F0100087F01000880
:100060007F010008F77D00084F7E00087F0100082F
:100070007F0100087F0100087F0100087F01000860
:100080007F0100087F0100087F0100087F01000850
:10009000B55D00087F0100087F010008A77E000809
:1000A0007F0100087F0100087F0100087F01000830
:1000B000E976000883770008317800088D7400081D
:1000C00097700008A5740008997400087F01000863
:1000D0007F0100087F0100087F0100087F01000800
:1000E0007F0100087F010008BD5D00087F01000856
:1000F0007F0100087F0100087F0100087F010008E0
:100100007F0100087F0100087F0100087F010008CF
:10011000FB8600087F0100087F0100087F010008BE
:100120007F0100087F0100087F0100087F010008AF
:10013000DFF80CD00BF014FF0048004789010008DD
:1001400060200020EFF30980704780F30988704732
:10015000EFF30880704780F30888704740BA704713
:10016000C0BA70470648804706480047FEE7FEE7EA
:10017000FEE7FEE7FEE7FEE7FEE7FEE7FEE7FEE757
:10018000672C00083101000888B007F0FDFFFE4829
:10019000FE49086003F084F8FD48FC49086003F05C
:1001A00007F90120FB49087069E2FB48007888B133
:1001B0000020F949087007F0F2FE0446F74800688D
:1001C000201AF7490860F548046007F0E8FE001BB4
:1001D000F4490860F4480078E8B10020F24908705A
:1001E00007F0DDFE0446F1480068201AF049086077
:1001F000EE480460EF480078012805D10020ED4961
:1002000008700120EC49087009F075F907F0C7FE85
:10021000001BEA490860EA48007800287ED00020E8
:10022000E749087007F0BBFE0446E6480068201A5C
:10023000E5490860E34804600021E44802F0C6F99B
:10024000E24802F07AFCE24908800021DF4802F02F
:1002500051FC0121DD4802F0B9F9DD4800880BF0BE
:10026000C5FB0546DB490BF0C0F9DB490860DB49FB
:10027000B1F900000BF0B1FB0646D94801683046E1
:100280000BF0ADF90546D7490BF0AFF9D649086038
:10029000D249B1F902000BF0A0FB0646D0484168F4
:1002A00030460BF09CF90546CE490BF09EF9CE493D
:1002B0004860CA49B1F904000BF08FFB0646C848F4
:1002C000816830460BF08BF980F00045C54928461F
:1002D0000BF08BF9C4498860C049B1F906000BF0F6
:1002E0007CFB0646BE48016830460BF078F90546AF
:1002F000BC490BF07AF9BC49C863B849B1F90800A8
:100300000BF06BFB0646B648416830460BF067F9C8
:100310000546B4490BF069F9B34900E027E10864E8
:10032000AE49B1F90A000BF058FB0646AC488168AB
:1003300030460BF054F980F00045AA4928460BF0EE
:1003400054F9A9494864A949B1F900000BF045FBEB
:100350000746A748016838460BF041F90646A5480C
:10036000016830460BF03BF90546A3490BF03DF917
:100370009D4948629D49B1F902000BF02EFB0746EA
:100380009B48416838460BF02AF90646994841686F
:1003900030460BF024F9054697490BF026F99249AF
:1003A00088629249B1F904000BF017FB07469048A8
:1003B000816838460BF013F906468E48816830464E
:1003C0000BF00DF980F000458B4928460BF00DF934
:1003D0008549C8628549B1F906000BF0FEFA074667
:1003E0008348C16838460BF0FAF806468148C16870
:1003F00030460BF0F4F805467F490BF0F6F87A49E1
:1004000008667A49B1F908000BF0E7FA0746784820
:10041000016938460BF0E3F8064676480169304634
:100420000BF0DDF8054674490BF0DFF801466E4825
:1004300041666E49B1F90A000BF0CFFA07466C48E5
:10044000416938460BF0CBF806466A4841693046A8
:100450000BF0C5F880F00045674928460BF0C5F859
:100460000146614881665C4800685F4B24335E4A00
:1004700002F10C010090614803F021F85648006831
:10048000594B6033A3F1240202F10C0100905B4848
:100490000C3003F014F854490868594903F06EFC15
:1004A0005149086048685649143103F067FC4E49C9
:1004B000486088685249283103F060FC4A498860E6
:1004C000C86B4F49B43103F059FC4749C863086C05
:1004D0004B49C83103F052FC43490864486C484911
:1004E000DC3103F04BFC404948643B480268324829
:1004F00003780846816B406BCDE90532CDE90301F5
:100500003948006B38498968374A5268364DCDE919
:10051000002102902B68EA6AA96A686A03F06BFFFF
:100520002D480268244803782846416F006FCDE9C2
:100530000532CDE903012846C06E2946496C2A469A
:10054000126CCDE900210290EB6BAA6E696E286EE9
:1005500004F09DFD00201849087007F020FD001BE5
:10056000284908604FF48051274800F080FB274855
:10057000007838B100202549087007F010FD0446C6
:10058000234847E051E0000000540040780100207B
:10059000005800401C020020C0010020F001002093
:1005A000E8010020EC010020C1010020FC01002036
:1005B000F40100202B0200202A020020F801002074
:1005C000BE010020D8010020D00100200010004012
:1005D00008000020BD37063518020020641B0020EB
:1005E000701B002057E79C3AF4040020A01B002059
:1005F000881B0020AC1B0020A8B38B396C050020A1
:10060000840D0020D4010020000C0140BF01002017
:10061000E40100200068201A1949086019480460A4
:1006200007F0BDFC001B184908601848007888B125
:1006300000201649087007F0B2FC04461448006810
:10064000201A144908601248046007F0A8FC001B37
:10065000114908601148007888B100200F490870DE
:1006600007F09DFC04460E480068201A0D490860FA
:100670000B48046007F093FC001B0B49086094E5ED
:10068000DC010020E4010020E0010020C201002084
:10069000080200200002002004020020C301002004
:1006A000140200200C02002010020020DF48006825
:1006B00040F00100DD49086008464068DC49084018
:1006C000DA49486008460068DA490840D7490860B6
:1006D0000846006820F4802008600846406820F43E
:1006E000FE0048604FF41F0088607047CF490968DA
:1006F00021F48031CD4A11601146096821F480212E
:100700001160B0F5803F03D0B0F5802F0ED106E028
:10071000C649096841F48031C44A116007E0C34901
:10072000096841F4A021C14A116000E000BF00BF88
:10073000704710B501460022002300204A11012A0B
:1007400002D1BA4C236806E0022A02D1B74C236AD0
:1007500001E0B64C636A01F01F02012494401C4082
:100760000CB1012000E0002010BD38B50020009041
:100770000024002500BF3120FFF7DBFF054600986D
:10078000401C00900098B0F5A06F01D0002DF2D071
:100790003120FFF7CEFF08B1012400E000242046FD
:1007A00038BD01460020A14A106820F0F80040EA58
:1007B000C10010607047A0490860704702460020E1
:1007C0009A4B586820F47C1042EA01031843974B77
:1007D0005860704798490866704701460020934A60
:1007E000506820F003000843506070478F4840680D
:1007F00000F00C007047014600208C4A506820F041
:10080000F00008435060704701460020874A506856
:1008100020F4E06008435060704701460020834A9E
:10082000506820F4605040EAC1005060704729B120
:100830007E4A527A02437D4B5A7204E07B4A527AD6
:1008400082437A4B5A7270477B49D83108607047AF
:1008500001460020754A506820F44040084350602B
:1008600070470021714A20321170704A82F82010BE
:10087000012802D004280AD104E001216B4A203269
:10088000117005E00521694A2032117000E000BFB7
:1008900000BF70476949086070476449096A0143AD
:1008A000624A11627047654944390860704730B543
:1008B00000210022002400235C4D6D6805F00C012E
:1008C00021B1042905D0082923D105E05C4D05603C
:1008D00022E05B4D05601FE0544D6D6805F4701219
:1008E000524D6D6805F48034022505EB92421CB927
:1008F000544D554305600BE04C4D6D6805F40035D3
:100900001DB1504D5543056002E04D4D5543056006
:1009100002E04B4D056000BF00BF444D6D6805F01F
:10092000F0010909484D6B5C0568DD4045603F4DAD
:100930006D6805F4E061090A434D6B5C4568DD4074
:1009400085603A4D6D6805F46051C90A3E4D6B5C97
:100950004568DD40C560354D6D6805F44041890B43
:100960003A4D6B5CC568B5FBF3F5056130BD29B147
:100970002E4A526902432D4B5A6104E02B4A5269B8
:1009800082432A4B5A61704729B1284A926902432F
:10099000264B9A6104E0254A92698243234B9A616F
:1009A000704729B1214AD2690243204BDA6104E041
:1009B0001E4AD26982431D4BDA61704729B11B4A36
:1009C000D2680243194BDA6004E0184AD2688243C5
:1009D000164BDA60704729B1144A12690243134B6F
:1009E0001A6104E0114A12698243104B1A61704780
:1009F00012494039086070470F49C86470470B4975
:100A0000C87170470948406A40F0807007494862E1
:100A1000704701460020054A92680A400AB1012049
:100A200000E00020704701498872704700100240C2
:100A30000000FFF8FFFFF6FE000042428004424241
:100A400000127A0000093D000A0000201A00002070
:100A500010B50446CC48844208D101210420FFF798
:100A6000ADFF00210420FFF7A9FF46E0C7488442FC
:100A700008D101210820FFF7A1FF00210820FFF77E
:100A80009DFF3AE0C248844208D101211020FFF7BF
:100A900095FF00211020FFF791FF2EE0BD48844212
:100AA00008D101212020FFF789FF00212020FFF736
:100AB00085FF22E0B848844208D101214020FFF799
:100AC0007DFF00214020FFF779FF16E0B348844204
:100AD00008D101218020FFF771FF00218020FFF75E
:100AE0006DFF0AE0AE48844207D101218015FFF76F
:100AF00065FF0021A015FFF761FF10BD10B50121B2
:100B00000846FFF75BFF00210120FFF757FF10BDEC
:100B10002DE9F04102460025002600200023002494
:100B2000002791F803C00CF00F0591F803C00CF0FA
:100B3000100CBCF1000F03D091F802C04CEA05057F
:100B400091F800C0BCF1000F31D0146800202BE0F8
:100B50004FF0010C0CFA00F3B1F800C00CEA0306E8
:100B60009E4220D183004FF00F0C0CFA03F7BC43D8
:100B700005FA03FC4CEA040491F803C0BCF1280F09
:100B800006D14FF0010C0CFA00FCC2F814C00AE0C8
:100B900091F803C0BCF1480F05D14FF0010C0CFADD
:100BA00000FCC2F810C0401C0828D1D31460B1F872
:100BB00000C0BCF1FF0F34DD546800202EE000F1CE
:100BC000080C4FF0010808FA0CF3B1F800C00CEA69
:100BD00003069E4221D183004FF00F0C0CFA03F75D
:100BE000BC4305FA03FC4CEA040491F803C0BCF1D1
:100BF000280F05D100F1080C08FA0CF8C2F814808F
:100C000091F803C0BCF1480F07D100F1080C4FF078
:100C1000010808FA0CF8C2F81080401C0828CED34E
:100C20005460BDE8F0814FF6FF71018002218170B0
:100C30000421C17070470246002093680B400BB13D
:100C4000012000E0002070470146886880B27047AC
:100C500002460020D3680B400BB1012000E00020C9
:100C600070470146C86880B27047016170474161B2
:100C700070470AB1016100E041617047C16070478F
:100C80004FF480320A4382618161826182698269A4
:100C9000704702460020434B18684FF68073184097
:100CA00040EA021008433F4B186070473E49C86154
:100CB0007047F0B50A46002300240021002500F00B
:100CC0000046B6F1004F02D1364EF16901E0354ED3
:100CD0007168C0F3034583B200F44016B6F5401FB7
:100CE00008D121F070612F4E766826F070662D4F86
:100CF0007E6012E000F48016B6F5801F06D1032650
:100D000006FA05F4A14341F0706106E0460D360194
:100D100003FA06F6B14341F0706122B1460D360187
:100D200003FA06F6314300F00046B6F1004F02D157
:100D30001C4EF16101E01B4E7160F0BD30B5002228
:100D40008B071C0F0F2303FA04F2164B08338C1089
:100D500053F824309343134C08348D1044F8253055
:100D600023468C1053F824308C07240F00FA04F427
:100D700023430C4C08348D1044F8253030BD0A490B
:100D8000DC3108607047000000080140000C0140A1
:100D9000001001400014014000180140001C0140F7
:100DA00000200140000001400000204210B5044630
:100DB000FB48844209D101218803FFF7FFFD002190
:100DC0004FF48040FFF7FAFD32E0F648844209D143
:100DD00001214804FFF7FFFD00214FF40030FFF729
:100DE000FAFD25E0F048844209D101218804FFF78B
:100DF000F2FD00214FF48020FFF7EDFD18E0EB48F5
:100E0000844209D10121C804FFF7E5FD00214FF418
:100E10000020FFF7E0FD0BE0E548844208D1012106
:100E20000805FFF7D8FD00214FF48010FFF7D3FD30
:100E300010BD2DE9F04786B005460E460024A246B7
:100E400000BFA1460027B08900B100BF2F462C8A01
:100E50004CF6FF700440F08804432C82AC894EF6B7
:100E6000F3100440B0883189084371890843044372
:100E7000AC81AC8A4FF6FF400440B0890443AC8299
:100E800001A8FFF714FDC648874202D1DDF810A083
:100E900001E0DDF80CA0A88900F4004040B10AEBA5
:100EA000CA0000EB0A1031684900B0FBF1F807E016
:100EB0000AEBCA0000EB0A1031688900B0FBF1F8B8
:100EC0006420B8FBF0F004012009642101FB1089C3
:100ED000A88900F4004040B1322000EBC900B0FB0B
:100EE000F1F000F00700044308E0322000EB0910A5
:100EF0006421B0FBF1F000F00F0004432C8106B038
:100F0000BDE8F0874FF41651016000218180C18057
:100F100001810C21418100218181704710B5024679
:100F20000020108A4FF2FF0318400B884C8823439F
:100F30008C882343CC8823431843108210BD0021A2
:100F4000018041808180C180704721B1828942F453
:100F50000052828104E082894DF6FF731A4082813B
:100F60007047F0B50346002400260025002040F617
:100F70006A17B94200D100BF1846C1F3421401F00C
:100F80001F06012707FA06F5012C01D10C3004E0F9
:100F9000022C01D1103000E014301AB107682F4341
:100FA000076002E00768AF430760F0BD1AB1838AAB
:100FB0000B43838202E0838A8B4383827047028AD9
:100FC0004FF6F0731A400282028A0A430282704787
:100FD00082894FF2FF731A40828182890A4382819B
:100FE000704721B1828942F00202828104E0828945
:100FF0004FF6FD731A4082817047028A4FF6DF7305
:101000001A400282028A0A430282704721B1028A90
:1010100042F48042028204E0028A4BF6FF731A40D7
:1010200002827047C1F308028280704701468888B7
:10103000C0F308007047818941F001018181704748
:10104000028BD2B20283028B42EA012202837047F2
:10105000028B02F47F420283028B0A4302837047B1
:1010600021B1828A42F02002828204E0828A4FF615
:10107000DF731A408282704721B1828A42F01002E7
:10108000828204E0828A4FF6EF731A4082827047B0
:1010900021B1828A42F00802828204E0828A4FF6FD
:1010A000F7731A408282704721B1828942F400426C
:1010B000828103E08289C2F30E028281704721B1EE
:1010C000828A42F40062828204E0828A4FF2FF73D5
:1010D0001A4082827047828A4FF6FB731A408282DE
:1010E000828A0A438282704721B1828A42F00202D8
:1010F000828204E0828A4FF6FD731A408282704732
:1011000002460020B1F5007F00D100BF13880B40DC
:101110000BB1012000E00020704701F40072B2F52D
:10112000007F00D100BFCA430280704770B50246FD
:10113000002400230025002040F66A16B14200D1A9
:1011400000BFC1F3421501F01F03012606FA03F3A5
:10115000012D02D19689334006E0022D02D1168A74
:10116000334001E0968A33400C12012606FA04F45B
:101170001688344013B10CB1012000E0002070BD8E
:1011800010B50022002340F66A14A14200D100BF2E
:101190000A1201249440A3B2DC43048010BD000075
:1011A000003801400044004000480040004C00402E
:1011B0000050004031490143314A1160704770B519
:1011C000002100230F22C47804B32D4C246804F4BA
:1011D000E064C4F5E064210AC1F10403CA40447824
:1011E00004FA03F18478144021430901254C067860
:1011F000A155047804F01F050124AC4005786D1159
:10120000AD0005F1E025C5F8004109E0047804F0DF
:101210001F050124AC401C4D0678761145F8264088
:1012200070BD1A4A0A400243154B1B1F1A607047D3
:1012300039B1134A121D12680243114B1B1D1A606B
:1012400006E00F4A121D126882430D4B1B1D1A60E7
:101250007047042808D14FF0E021096941F00401EA
:101260004FF0E022116107E04FF0E021096921F021
:1012700004014FF0E0221161704700000000FA0500
:101280000CED00E000E400E080E100E080FFFF1FE3
:10129000002044490860091D0860091D0860091DF7
:1012A000086041483F4914310860704700213D49BA
:1012B0008279002A3AD00A46126803689A430B469C
:1012C0001A600A1D126803689A430B1D1A6002799E
:1012D00011440A6803681A430A60324A08321268E5
:1012E00003689A432F4B08331A601A1D126803686B
:1012F0009A432C4B0C331A604279102A0ED11A1FD4
:10130000126803681A43274B08331A601A1D1268C3
:1013100003681A43234B0C331A600DE021494279CC
:1013200011440A6803681A430A6005E0027911440F
:101330000A6803689A430A607047002101600171DE
:101340000C214171002181717047164910310968E3
:101350000143144A10321160704701460020114ABF
:10136000143212680A400AB1012000E000207047E0
:101370000C49143108607047014600200022094BD7
:101380001B6803EA0102074B14331B680B4013B1BF
:101390000AB1012000E000207047024914310860C2
:1013A0007047000000040140FFFF0F0001460020CD
:1013B000FE4A106800F03800084310607047FB498F
:1013C000096821F00801F94A1160114609680143D2
:1013D00011607047F549096821F01001F34A116066
:1013E00011460968014311607047F148EF494860B0
:1013F000F04848607047EE48EC494860ED48486066
:101400007047EA48006940F08000E8490861704789
:10141000E648006940F08000E44908617047042014
:10142000E249C96801F0010109B101200EE0DF497C
:10143000C96801F0040109B1022007E0DB49C9686D
:1014400001F0100109B1032000E00420704700B54D
:1014500002460423FFF7E3FF034603E0FFF7DFFF45
:101460000346521E012B01D1002AF7D102B90523F0
:10147000184600BD30B5044604254FF43020FFF770
:10148000E6FF0546042D17D1C848006940F0020068
:10149000C649086108464461006940F0400008619F
:1014A0004FF43020FFF7D3FF0546C048006941F6EE
:1014B000FD710840BD490861284630BD10B50424BF
:1014C0004FF43020FFF7C3FF0446042C16D1B74871
:1014D000006940F00400B54908610846006940F021
:1014E000400008614FF43020FFF7B1FF0446AF48D9
:1014F000006941F6FB710840AC490861204610BD07
:1015000000B502460423FFF78AFF034603E0FFF716
:1015100086FF0346521E012B01D1002AF7D102B9E2
:101520000523184600BD10B504244FF43020FFF702
:10153000E7FF0446042C16D19C48006940F00400E3
:101540009A4908610846006940F0400008614FF47C
:101550003020FFF7D5FF04469448006941F6FB713F
:10156000084092490861204610BD00208F49C96992
:1015700001F0020109B1012000E00020704730B500
:10158000A5250424FFF7F1FF00B100254FF430201A
:10159000FFF75DFF0446042C3AD1854883498860F3
:1015A000844888600846006940F0200008610846C9
:1015B000006940F0400008614FF43020FFF747FF1A
:1015C0000446042C1BD17948006941F6DF710840BC
:1015D000764908610846006940F0100008617648C5
:1015E0000580E002FFF733FF0446052C10D06F485A
:1015F000006941F6EF7108406C49086108E0052C6C
:1016000006D06A48006941F6EF71084067490861F1
:10161000204630BD78B506460C46042500200090D3
:10162000E802FFF714FF0546042D24D15F48006946
:1016300040F001005D4908613480E802FFF707FFD0
:101640000546042D10D1B01C0090200C0099088094
:10165000E802FFF7FCFE05465448006941F6FE71BA
:1016600008405249086106E05048006941F6FE71A1
:1016700008404E490861284678BD70B504460D46BD
:101680000426F002FFF7E3FE0646042E11D1474878
:10169000006940F00100454908612580F002FFF72C
:1016A000D6FE06464148006941F6FE7108403F49B2
:1016B0000861304670BD70B505460E460424E00250
:1016C000FFF7C5FE0446042C17D139483749886016
:1016D000384888600846006940F0100008612E8094
:1016E000E002FFF7B4FE0446052C06D02F4800693F
:1016F00041F6EF7108402D490861204670BD2DE983
:10170000F04304464FF6FF763746B046B14604250F
:10171000E443E6B2C4F30727C4F307484FEA146969
:10172000E802FFF794FE0546042D49D120481F49E1
:101730008860204888600846006940F01000086111
:10174000FF2E06D01C4808300680E802FFF77FFE17
:101750000546042D08D1FF2F06D017480A30078010
:10176000E802FFF774FE0546042D0AD1B8F1FF0F19
:1017700007D011480C30A0F80080E802FFF767FEA0
:101780000546042D0AD1B9F1FF0F07D00A480E30E3
:10179000A0F80090E802FFF75AFE0546052D0FD08D
:1017A0000248006941F6EF71084007E0002002405E
:1017B00023016745AB89EFCD00F8FF1F664908613B
:1017C0002846BDE8F08330B5054604244FF43020A8
:1017D000FFF73DFE0446042C41D160485E49886015
:1017E0005F4888600846006940F0200008610846AC
:1017F000006940F0400008614FF43020FFF727FEF9
:101800000446042C22D15448006941F6DF71084097
:10181000514908610846006940F0100008611DB197
:1018200000205049088002E0A5204E4908804FF46E
:101830003020FFF70CFE0446052C10D04648006906
:1018400041F6EF7108404449086108E0052C06D0D4
:101850004148006941F6DF7108403F490861204670
:1018600030BDF0B505460E46174604243B483A49BC
:1018700088603B488860E002FFF7E9FD0446042CDD
:1018800019D13548006940F010003349086147F02C
:10189000F800304328433349891C0880E002FFF7F1
:1018A000D6FD0446052C06D02B48006941F6EF71A1
:1018B0000840294908612046F0BD2748C0698008D2
:1018C00070472548006A704700202349096801F0E5
:1018D000200109B1012000E00020704729B11E4A13
:1018E000126902431C4B1A6104E01B4A12698243CD
:1018F000194B1A61704701460020012908D1164A88
:10190000D26902F001020AB1012008E0002006E0DD
:10191000114AD2680A400AB1012000E00020704755
:101920000D49C860704704200B49C96801F00101E6
:1019300009B101200EE00849C96801F0040109B1AC
:10194000022007E00449C96801F0100109B1032031
:1019500000E004207047000000200240230167459A
:10196000AB89EFCD00F8FF1F10B50446F74884425D
:1019700009D101214805FFF72EF800214FF400108E
:10198000FFF729F808E001218805FFF724F8002176
:101990004FF48000FFF71FF810BD2DE9F04385B02C
:1019A00004460D460026B1460427DFF8A483A68826
:1019B0004FF6C07006406846FEF779FFDDF80880F4
:1019C000E448B8FBF0F01FFA80F946EA0906A68061
:1019D00020884FF6FE71084020800026DE492868E6
:1019E00088420CD828684000B8FBF0F087B2042F7A
:1019F00000DA04273E4309F10100208427E0E8884B
:101A00004BF6FF71884206D1286800EB4000B8FB16
:101A1000F0F087B209E0286800EBC00101EB00108C
:101A2000B8FBF0F087B247F48047C7F30B0008B962
:101A300047F0010747F4004006434FF4967009FB56
:101A400000F04FF47A7190FBF1F0401C2084A683E3
:101A5000208840F00100208026884FF6F5300640AF
:101A6000A8886989084306432680A88929890843EC
:101A7000208105B0BDE8F08341F28831016000218A
:101A800081804BF6FF71C1800021018141814FF4BB
:101A900080418181704721B1028842F001020280B9
:101AA00004E002884FF6FE731A400280704721B1AD
:101AB000828842F40062828004E082884FF2FF73E1
:101AC0001A408280704721B1828842F4805282801D
:101AD00004E082884EF6FF731A408280704721B17D
:101AE000028842F48072028004E002884FF6FF63AD
:101AF0001A400280704721B1028842F400720280CD
:101B000004E002884FF6FF531A400280704721B16B
:101B1000028842F48062028004E002884FF6FF33BC
:101B20001A40028070470A46002181894FF60173EE
:101B3000194002F0FE0319438181704721B1828967
:101B400042F00102828104E082894FF6FE731A405E
:101B50008281704721B1028842F04002028004E095
:101B600002884FF6BF731A40028070471AB183880B
:101B70000B43838002E083888B438380704701821C
:101B800070470146088AC0B2704712B141F00101A6
:101B900002E04FF6FE7319400182704708B5024615
:101BA000002000900092009808440090009800885F
:101BB00008BD21B1028842F40042028003E002889D
:101BC000C2F30E0202807047B1F5006F04D10288A3
:101BD00042F40062028004E002884FF2FF731A4070
:101BE00002807047B1F5005F04D1028842F40052D0
:101BF000028004E002884DF6FF731A4002807047AD
:101C000021B1028842F48052028004E002884EF63C
:101C1000FF731A4002807047B1F5006F04D102884B
:101C200042F40062028004E002884FF2FF731A401F
:101C30000280704721B1028842F02002028004E055
:101C400002884FF6DF731A40028070470146088B06
:101C50000012704721B1028842F01002028004E0B5
:101C600002884FF6EF731A400280704721B902884C
:101C700042F08002028004E002884FF67F731A402F
:101C800002807047B1F5804F05D0828B4BF6FF7311
:101C90001A40828303E0828B42F480428283704741
:101CA00070B502460024002500230020958A138B7E
:101CB0001B0445EA030626F07F4404EA01068E422F
:101CC00001D1012000E0002070BD10B501460020C8
:101CD000002300228B8A0A8B120443EA020424F0B8
:101CE0007F4010BD0CB502460020002301930093F5
:101CF00000920B0F019321F07F41019B1BB1009BD0
:101D00001433009303E0090C009B18330093009BED
:101D10001B680B400BB1012000E000200CBD00222D
:101D200021F07F42D3438382704730B502460020C2
:101D30000023948801F0E06504EA154321F07F4117
:101D4000948A0C4054B14BB1012008E0005400408B
:101D500000127A0040420F00A0860100002030BD32
:101D6000002221F07F42D3438382704710B504469E
:101D7000FE48844208D10121C014FEF71FFE002155
:101D8000E014FEF71BFEC4E0B4F1804F08D101213E
:101D90000846FEF720FE00210120FEF71CFEB8E0F9
:101DA000F348844208D101210220FEF714FE0021ED
:101DB0000220FEF710FEACE0EE48844208D101217B
:101DC0000420FEF708FE00210420FEF704FEA0E038
:101DD000E948844208D101210820FEF7FCFD0021DA
:101DE0000820FEF7F8FD94E0E448844208D1012180
:101DF0001020FEF7F0FD00211020FEF7ECFD88E03A
:101E0000DF48844208D101212020FEF7E4FD0021B3
:101E10002020FEF7E0FD7CE0DA48844208D1012171
:101E20004014FEF7CBFD00216014FEF7C7FD70E003
:101E3000D548844209D10121C804FEF7BFFD002125
:101E40004FF40020FEF7BAFD63E0D048844209D188
:101E500001210805FEF7B2FD00214FF48010FEF7C6
:101E6000ADFD56E0CA48844209D101214805FEF77C
:101E7000A5FD00214FF40010FEF7A0FD49E0C54884
:101E8000844208D101214020FEF7A5FD0021402019
:101E9000FEF7A1FD3DE0C048844208D10121802029
:101EA000FEF799FD00218020FEF795FD31E0BB484B
:101EB000844208D101218015FEF78DFD0021A01577
:101EC000FEF789FD25E0B648844209D101210804C6
:101ED000FEF774FD00214FF48030FEF76FFD18E02F
:101EE000B048844209D101214804FEF767FD002172
:101EF0004FF40030FEF762FD0BE0AB48844208D19E
:101F000001218804FEF75AFD00214FF48020FEF7DE
:101F100055FD10BD00220288944B98420ED0994B7B
:101F200098420BD0B0F1804F08D0914B984205D029
:101F3000904B984202D0904B984204D14FF68F7349
:101F40001A404B881A438D4B984207D08C4B9842CD
:101F500004D04FF6FF431A40CB881A4302808B8887
:101F600083850B880385814B98420BD0854B984223
:101F700008D08B4B984205D08A4B984202D08A4BAE
:101F8000984201D10B7A038601238382704770B592
:101F9000002400220023058C4FF6FE763540058490
:101FA000028C8388048B4FF68F752C40B51E2C4015
:101FB0000D882C43751E2A400D892A434D882A43DB
:101FC0006A4DA8420BD06F4DA84208D0744DA8426C
:101FD00005D0744DA84202D0734DA84213D14FF6DC
:101FE000F7752A404D892A434FF6FB752A408D88A4
:101FF0002A434FF6FF652B404FF6FF552B408D8946
:102000002B43CD892B4383800483CD88858602842E
:1020100070BD70B5002400220023058C4FF6EF76CA
:1020200035400584028C8388048B48F6FF752C406C
:102030004FF6FF452C400D884FF6FF7606EA052542
:102040002C434FF6DF752A400D8906EA05152A4311
:102050004D8806EA05152A43444DA84202D0494D51
:10206000A8421DD14FF67F752A404D894FF6FF7665
:1020700006EA05152A434FF6BF752A408D8806EA01
:1020800005152A434FF6FF352B404FF2FF752B40C5
:102090008D8906EA85052B43CD8906EA85052B4304
:1020A00083800483CD880587028470BD70B50024C9
:1020B00000220023058C4FF6FF6635400584028C14
:1020C0008388848B4FF68F752C404FF6FC752C401F
:1020D0000D882C434FF6FF552A400D894FF6FF76A9
:1020E00006EA05252A434D8806EA05252A431F4DA1
:1020F000A84202D0234DA8421DD14FF2FF752A40BD
:102100004D894FF6FF7606EA05252A434FF6FF353F
:102110002A408D8806EA05252A434EF6FF752B4096
:102120004DF6FF752B408D8906EA05152B43CD89A9
:1021300006EA05152B4383808483CD888587028436
:1021400070BD70B5002200230024058C4EF6FF768A
:1021500035400584038C8488828B48F6FF752A40BD
:102160004FF6FF452A400D8820E00000002C01407A
:102170000004004000080040000C00400010004037
:102180000014004000340140004C01400050014068
:102190000054014000180040001C00400020004096
:1021A0000040014000440140004801404FF6FF76E6
:1021B00006EA05252A434DF6FF752B400D8906EAF0
:1021C00005352B434D8806EA05352B43FA4DA842C9
:1021D00002D0FA4DA84208D14BF6FF752C408D89EC
:1021E0004FF6FF7606EA85152C4384808283CD88DE
:1021F000A0F84050038470BD828B4FF2FF331A4029
:102200008283828B4FF6FF7303EA01231A43828392
:102210007047F0B50C461546002200210026078CB9
:102220004EF6FF7C07EA0C070784828B018C4FF681
:10223000FF7707EA043640F6FF473A404FF6FF774C
:1022400007EA05273A434FF6FF7707EA03373A4391
:10225000D94FB8420ED0D94FB8420BD0B0F1804F11
:1022600008D0D74FB84205D0D64FB84202D0D64F8B
:10227000B84206D14DF6FF77394046F480573943CE
:1022800005E047F6FF57394044F4805739438283CD
:102290000184F0BD828B4FF6F3731A408283828BE8
:1022A0000A4382837047F0B50C4615460022002190
:1022B0000026078C4FF6FF6C07EA0C070784828B19
:1022C000018C4FF6FF7707EA04264FF60C773A4069
:1022D0004FF6FF7707EA03172F433A43B64FB8424A
:1022E0000ED0B64FB8420BD0B0F1804F08D0B44FEB
:1022F000B84205D0B34FB84202D0B34FB84206D16E
:102300004FF6FF57394046F48077394305E04FF2E6
:10231000FF57394044F48077394382830184F0BD0C
:10232000028B4FF2FF331A400283028B4FF6FF738A
:1023300003EA01231A4302837047F0B50C461546A1
:10234000002200210026078C4FF6EF7C07EA0C07DD
:102350000784028B018C4FF6FF7707EA041640F6DC
:10236000FF473A404FF6FF7707EA03373A434FF605
:10237000FF7707EA05273A438F4FB8420ED08F4FB9
:10238000B8420BD0B0F1804F08D08D4FB84205D085
:102390008C4FB84202D08C4FB84206D14FF6DF774F
:1023A000394046F01007394305E04FF65F77394072
:1023B00044F01007394302830184F0BD028B4FF6CD
:1023C000F3731A400283028B0A4302837047F0B50D
:1023D0000C46154600220021068C4FF6FE773E4043
:1023E0000684028B018C4FF60C7632407E1C06EA86
:1023F00003162E433243704EB0420ED06F4EB042A1
:102400000BD0B0F1804F08D06D4EB04205D06D4E6C
:10241000B04202D06C4EB04206D14FF6FD7631404C
:1024200044F00106314305E04FF6F576314044F0C3
:102430000106314302830184F0BD70B505460C46A8
:102440005D4885420ED05D4885420BD0B5F1804F86
:1024500008D05B48854205D05A48854202D05A4888
:10246000854200D100E000BF208850B92389A288AE
:1024700061882846FFF7ABFFE1882846FFF79EFFFB
:1024800025E0208804280AD12389A288618828466B
:10249000FFF753FFE1882846FFF742FF17E0208847
:1024A00008280AD12389A28861882846FFF7FBFE05
:1024B000E1882846FFF7EEFE09E02389A2886188BB
:1024C0002846FFF7A6FEE1882846FFF795FE70BD77
:1024D0002DE9F04105460C4600260127608808B921
:1024E000022600E00026A088012801D1022700E092
:1024F00001272088A0B92389A28861882846FFF790
:1025000066FFE1882846FFF759FF23893A4631469E
:102510002846FFF712FFE1882846FFF701FF13E086
:102520002389A28861882846FFF707FFE1882846AB
:10253000FFF7F6FE23893A4631462846FFF747FF64
:10254000E1882846FFF73AFFBDE8F0810A884B880A
:102550001A438B881A43CB881A430B891A434B8939
:102560001A438B891A43A0F8442070474FF6FF7135
:10257000818000210180C18041800172704700216B
:10258000018041808180C180018141818181C1813F
:102590007047002101804180012181800021C1809C
:1025A000018170470021018041808180C1800181CB
:1025B0004181818170470000002C014000340140BE
:1025C0000004004000080040000C004021B10288D7
:1025D00042F00102028004E002884FF6FE731A40C6
:1025E0000280704731B1B0F8442042F40042A0F8B4
:1025F000442005E0B0F84420C2F30E02A0F84420C5
:1026000070471AB183890B43838102E083898B432E
:10261000838170478182704741EA0203A0F8483005
:1026200070471AB183890B43838102E083898B430E
:102630008381704701894FF6F8721140018170471C
:102640000A46002101894FF68F7319401143018119
:10265000704730B504460D4629462046FFF7F0FF87
:10266000208940F00700208130BD2DE9F04104466B
:102670000D4616461F46602D06D13B4601223146C7
:102680002046FFF75AFE05E03B4601223146204630
:10269000FFF79DFE29462046FFF7D2FF208940F034
:1026A00007002081BDE8F08130B50C46002101898A
:1026B000C9B24FF6FF7505EA0325154325432943A3
:1026C000018130BD2DE9F04105460E46174698467A
:1026D000002443463A4631462846FFF7E5FF2C8959
:1026E0004FF6F870044044F007044FF68F70044032
:1026F00044F070042C81BDE8F081F0B504460D462D
:1027000016461F463B46324629462046FFF7CCFF79
:10271000208940F480402081F0BD0185828270478D
:102720000A46002101884FF68F731940114301803A
:102730007047F0B50C4615461E46002100220023C6
:102740000189028B038C4FF6F877394021434FF60D
:10275000FC473A4040F201173A434FF6DD773B40E1
:102760004FF6FF7707EA06172F433B4301810283A9
:102770000384F0BD0A460021018B4FF68F73194088
:102780001143018370470A460021018B48F6FF730D
:1027900019404FF6FF7303EA022319430183704780
:1027A0000A460021818B4FF68F73194011438183B4
:1027B00070470A460021818B48F6FF7319404FF697
:1027C000FF7303EA022319438183704721B1028812
:1027D00042F08002028004E002884FF67F731A40C4
:1027E0000280704721B1828842F00402828004E0B6
:1027F00082884FF6FB731A408280704721B182882D
:1028000042F00802828004E082884FF6F7731A4093
:102810008280704721B1828842F00102828004E008
:1028200082884FF6FE731A40828070470A46002164
:10283000018B4FF6F77319401143018370470A4625
:102840000021018B4FF2FF7319404FF6FF7303EA2B
:1028500002231943018370470A460021818B4FF6FA
:10286000F77319401143818370470A460021818B19
:102870004FF2FF7319404FF6FF7303EA0223194327
:10288000818370470A460021018B4FF6FB73194084
:102890001143018370470A460021018B4FF6FF3335
:1028A00019404FF6FF7303EA02231943018370476F
:1028B0000A460021818B4FF6FB7319401143818337
:1028C00070470A460021818B4FF6FF3319404FF6BF
:1028D000FF7303EA02231943818370470A460021EC
:1028E000018B4FF67F7319401143018370470A46ED
:1028F0000021018BC1F30E014FF6FF7303EA02239F
:102900001943018370470A460021818B4FF67F737C
:1029100019401143818370470A460021818BC1F31E
:102920000E014FF6FF7303EA0223194381837047B8
:102930000A460021018C4FF6FD73194011430184B2
:1029400070470A460021018C4FF6F7731940114376
:10295000018470470A460021018C4FF6DF7319404D
:102960004FF6FF7303EA02131943018470470A46C6
:102970000021018C4FF67F7319404FF6FF7303EA75
:1029800002131943018470470A460021018C4FF657
:10299000FF5319404FF6FF7303EA022319430184E2
:1029A00070470A460021018C4FF2FF7319404FF621
:1029B000FF7303EA02231943018470470A4600218A
:1029C000018C4DF6FF7319404FF6FF7303EA023393
:1029D00019430184704730B5002301248C40A3B211
:1029E000048C9C430484048C02FA01F5ADB22C43A0
:1029F000048430BD30B5002304248C40A3B2048C81
:102A00009C430484048C02FA01F5ADB22C43048487
:102A100030BD70B50346002000241846183001254B
:102A20008D40ACB21D8CA5431D8409B1082909D184
:102A300000EB6100056825F0700505600568154329
:102A400005600EE00D1FC5F34E052844056825F40A
:102A5000E045056005684FF6FF7606EA0226354335
:102A6000056070BD21B1028842F00202028004E0DC
:102A700002884FF6FD731A400280704721B1028828
:102A800042F00402028004E002884FF6FB731A4011
:102A90000280704721B1828842F08002828004E087
:102AA00082884FF67F731A408280704702884FF603
:102AB000F7731A40028002880A43028070478288B6
:102AC0004FF68F731A40828082880A438280704753
:102AD00002894FF6F8731A40028102890A43028183
:102AE000704702894FF67F731A40028102890A43B8
:102AF0000281704781847047818570478186704765
:102B00000187704781877047A0F84010704702889E
:102B10004FF6FF431A40028002880A430280704742
:102B20000146888E70470146088F70470146888F9E
:102B300070470146B1F8400070470146888C7047E5
:102B40000146088D704702460020138A0B400BB1E6
:102B5000012000E000207047CA430282704730B570
:102B60000246002000230024158A05EA0103958906
:102B700005EA010413B10CB1012000E0002030BDD2
:102B8000CA430282704700000CB5002001900090FB
:102B90006C48006840F480306A49086000BF6948AA
:102BA000006800F4003000900198401C01900098EB
:102BB00018B90198B0F5A06FF1D16248006800F42F
:102BC000003010B10120009001E00020009000983A
:102BD000012843D15C48006840F010005A49086061
:102BE0000846006820F0030008600846006840F0CE
:102BF00002000860534840685249486008464068EF
:102C000048600846406840F4806048600846406874
:102C100020F47C1048600846406840F4E8104860A2
:102C20000846006840F08070086000BF45480068B2
:102C300000F000700028F9D04248406820F00300FE
:102C4000404948600846406840F00200486000BFC4
:102C50003C48406800F00C000828F9D10CBD10B5C4
:102C6000FFF792FF10BD10B53648006840F0010034
:102C70003449086008464068344908403149486092
:102C800008460068324908402E4908600846006836
:102C900020F4802008600846406820F4FE00486068
:102CA0004FF41F008860FFF7DAFF4FF000602949FA
:102CB000086010BD10B5002100200022214B5B6888
:102CC00003F00C0121B1042906D0082928D107E01E
:102CD000214B224C236027E01F4B204C236023E034
:102CE000184B5B6803F47010164B5B6803F480327A
:102CF000022303EB904022B9194B4343174C236046
:102D00000DE0104B5B6803F4003323B1144B4343D5
:102D1000124C236003E0104B4343104C236003E04C
:102D20000D4B0E4C236000BF00BF064B5B68C3F326
:102D300003130C4CE15C094B1B68CB40074C236030
:102D400010BD000000100240002002400000FFF80B
:102D5000FFFFF6FE08ED00E000127A0020000020E0
:102D600000093D00240000207049714A11600020D4
:102D70001AE0002200EB80036E4901EBC3010A61F7
:102D800000EB80036B4901EBC3018A6100EB800318
:102D9000684901EBC301CA6100EB8003654901EB9F
:102DA000C3010A62411CC8B20328E2DB70472DE967
:102DB000F04F87B00746884691469A46109C414698
:102DC000384608F00CFC064694F82500012803D18B
:102DD000304603F0B1FD0646BAF1000F11D1494665
:102DE000304608F002FC8346216908F0A6FB20610A
:102DF000606980F0004B02465946206903F01AF8DA
:102E0000206194F8240001280AD13046A16908F015
:102E1000E6FB8346494608F01AFC0546A66112E027
:102E20004146A06908F0DBFB8346494608F00FFCE9
:102E3000054694F82500012803D1284603F07CFDBF
:102E40000546C4F8188094F82500012818D12946B1
:102E5000E06808F0CAFB05902169A06808F0C5FB8E
:102E600004903146606808F0C0FB0390049908F0B4
:102E700064FB8346059908F060FB07B0BDE8F08F5E
:102E80004146606808F0B1FB0590E068069908F0DB
:102E9000ACFB04902169A06808F0A7FB0290D4E97C
:102EA000001008F0A2FB3946009008F09EFB01904C
:102EB000029908F042FB0390049908F03EFB834618
:102EC000059908F08CFBD8E700EB8003194A02EB68
:102ED000C3021161704710B5002405E000212046AF
:102EE000FFF7F2FF601CC4B2032CF7DB10BD00EB50
:102EF0008003104A02EBC302916100EB80030D4A8C
:102F000002EBC302D16100EB80030A4A02EBC30269
:102F10001162704710B5002405E000212046FFF73C
:102F2000E6FF601CC4B2032CF7DB10BD3661023C27
:102F3000380000200C0400202DE9F0474FF4BA724D
:102F4000C249C34808F0CEFAC149086F08F0B0FD85
:102F500080460AF0C5FB064632460B460020BD49B6
:102F600008F0CCFC044608F0B6FDBB490860B8493F
:102F7000086F08F09DFD06460AF0B2FB04462246A3
:102F80000B460020B34908F0B9FC804608F0A3FDC9
:102F9000B1494860AE49D1F818014FF0804108F0BE
:102FA00056FBAE490860AA49D1F81C014FF0804198
:102FB00008F04DFBA9494860A549D1F820014FF020
:102FC000804108F044FBA5498860084601684FF03D
:102FD0007E5008F03CFBA2490860A04841684FF0D1
:102FE0007E5008F034FB9E4948609C4881684FF051
:102FF0007E5008F02CFB9A498860BDE8F08770B5D8
:10300000FEF7F3F93420FEF78BFC9048FEF732FA16
:10301000042810D100240AE08D4A11598B4AA018C7
:10302000FEF7F8FA0546042D00D003E0241DB4F5A0
:10303000BA7FF1D300BFFEF7E4F9FFF77DFF70BD63
:1030400070B50446814805781CB9864800788542E9
:103050007DD0844800787E49087000217C48016159
:103060004161816100207A4948600021784881608F
:10307000C1608162C162016300207549C86100219D
:1030800073480162416201644164816400207049B7
:10309000486300216E488163C1638165C165016633
:1030A00000206B49C8640021694801654165002022
:1030B00067494866002166488166C1664FF07E50C8
:1030C0006349086768484867002088676648C8679A
:1030D0000020C1F88000022081F884006348C1F814
:1030E00088004FF07E50C1F88C0000215848C0F88D
:1030F0009010C0F89410C0F89810C0F89C105C496B
:10310000C0F8A0100021C0F8A410C0F8A810C0F8A2
:10311000AC10012180F8B01080F8B1104FF07E5152
:10312000C0F8B4100021C0F8B810C0F8BC10C0F846
:10313000C010C0F8C4104E49C0F8C8100021C0F833
:10314000CC10C0F8D010C0F8D410012100E07BE012
:1031500080F8D81080F8D9104FF07E51C0F8DC10FC
:103160004449C0F8E0104449C0F8E4104907C0F8E9
:10317000E8100021C0F8EC103D49C0F8F010002123
:10318000C0F8F410C0F8F810C0F8FC10012180F865
:10319000001180F8011139482D49C1F80401C1F826
:1031A0000801C1F80C01012081F8100181F811011A
:1031B00081F81201002081F8130181F8140181F8CF
:1031C0001501082081F816012D48C1F81801C1F831
:1031D0001C01C1F820012B48C1F82401012081F80D
:1031E000280181F8290181F82A012748C1F82C011A
:1031F000C1F830012548C1F834012548C1F838012B
:10320000C1F83C012348C1F84001C1F844012248FB
:10321000C1F84801C1F84C012048C1F85001C1F87B
:103220005401C1F858010020C1F85C01C1F86001E7
:10323000C1F864014FF07A50C1F86801C1F86C011F
:10324000C1F87001FFF7DBFE70BD000000F8030855
:10325000800300200000F03F540100203C000020CB
:1032600048000020640000200000A04000803B4592
:103270000000C8426666A63F9A99993F0000344212
:1032800000006041DB0F493FC2B8323FF366DF3FC9
:10329000F366DF3E368DA73FDB0FC93FCDCCCC3D7B
:1032A0002DE9FE4396240020009001900290002515
:1032B0006FE005F0C8FB05F061FBCF49B1F90000F4
:1032C00008F08BFB0746CD480168384608F087F9BF
:1032D0000646CB4908F089F9CA490860C649B1F9E0
:1032E000020008F07AFB0746C4484168384608F0F7
:1032F00076F90646C24908F078F9C2494860BE49E5
:10330000B1F9040008F069FB0746BC4881683846FB
:1033100008F065F980F00046B949304608F065F9D3
:10332000B84988600846806880F0004708464068D1
:1033300080F000483946404609F0D8FE064600991C
:1033400008F0FBF80090AF48806880F00047AD4976
:103350000868394609F0CAFE0646019908F0EDF8FA
:103360000190204608F039FB06463146009808F0E7
:103370006EF9A5490860204608F02FFB0646314645
:10338000019808F064F9A0494860022004F0F0FEBA
:103390006D1CA5428DDB9C4841689A4801619A48A2
:1033A00000689849C860002196484161BDE8FE83E5
:1033B0002DE9FE4396240020009001900290002504
:1033C0006FE005F073FD05F00CFD8B49B1F90600C7
:1033D00008F003FB074689480168384608F0FFF803
:1033E0000646874908F001F98649C8638249B1F960
:1033F000080008F0F2FA074680484168384608F0AD
:10340000EEF806467E4908F0F0F87E4908647A49ED
:10341000B1F90A0008F0E1FA0746784881683846B1
:1034200008F0DDF880F000467549304608F0DDF818
:10343000744948640846406C80F000470846006CB8
:1034400080F000483946404609F050FE0646009993
:1034500008F073F800906B48406C80F000476949B1
:10346000C86B394609F042FE0646019908F065F836
:103470000190204608F0B1FA06463146009808F05F
:10348000E6F86149C860204608F0A7FA06463146CA
:10349000019808F0DCF85C490861022004F068FE3D
:1034A0006D1CA5428DDB584801695648C1645648D9
:1034B000C1685448816400210165BDE8FE832DE99F
:1034C000F04F87B005460C4617461E46B86880F098
:1034D0000048786880F000494146484609F006FEF9
:1034E0000490B86880F000484146386809F0FEFD55
:1034F00005904649286808F078F88146049908F054
:103500001CF88046424908F0A2F828603F496868E4
:1035100008F06BF88146059908F00FF880463C49A1
:1035200008F095F86860706802906168686808F053
:1035300056F88246374908F058F8814610990298A3
:1035400008F053F88246616807F0F7FF8046494665
:1035500007F0F3FF6060606809F0FEFF8246B16823
:1035600008F043F88046606820F0004B584609F0A8
:10357000EBFE8246316808F038F88146414607F094
:10358000DCFF01902168286808F029F8824621496B
:1035900008F02BF880461099019808F026F882462A
:1035A000216807F0CAFF8146414607F0C6FF206048
:1035B000606809F0D1FF8246316808F016F880464D
:1035C000606820F0004B584609F0BEFE8246B168A4
:1035D00008F00BF88146414608F001F80390109975
:1035E000039808F002F88046A16807F0A6FFA060E3
:1035F00007B0BDE8F08F00007C1B0020701B00208E
:1036000057E79C3AF40400206C0500200000C642F5
:103610000000C84217B751392DE9F05F002421E0BE
:10362000204608F0DAF90646344907F0DEFF054681
:103630004FF0894108F00BF88146484609F08CFFAD
:1036400083462F4907F0D1FF824608F031FA07463A
:1036500009F038FF054608F00CFA00B2294921F8B4
:103660001400641CB4F5806FDADBBDE8F09F2DE92F
:10367000F04705460021284608F054FA1DD81F4996
:10368000284607F0E4FF80464FF0894107F0ADFF80
:10369000074608F0C1F90446C01704EB90508012A9
:1036A000A4EB8026174931F9160008F096F9044674
:1036B000134907F0CCFFBDE8F08785F000490F49BA
:1036C000484607F0C4FF80464FF0894107F08DFF60
:1036D000074608F0A1F90446C01704EB9050801289
:1036E000A4EB8026074931F91610484208F075F915
:1036F0000446034907F0ABFFDDE70000DB0FC940DC
:1037000000FEFF46840500202DE9F041FE48D0F878
:1037100050114FF0804007F068FF0446FB4907F066
:1037200064FF0546002424E329464FF07E5007F04D
:1037300004FF064631464FF07E5007F088FFC4EB89
:10374000041101EB4101F24A42F8210029464FF0F1
:103750007E5007F0F2FE064631464FF07E5007F0ED
:1037600076FFC4EB041101EB4101E94A02EB810150
:10377000486029464FF07E5007F0DFFE0646294696
:103780004FF07E5007F02BFF0746314607F05FFFF2
:10379000C4EB041101EB4101DD4A02EB81018860B9
:1037A0000020C4EB041101EB410102EB8101C86070
:1037B000C4EB041101EB410102EB81010861D24825
:1037C000D0F854114FF0804007F00FFF0646CF4964
:1037D00007F00BFF054629464FF07E5007F0ADFE7F
:1037E000064631464FF07E5007F031FFC4EB04111E
:1037F00001EB4101C64A02EB8101486129464FF0C5
:103800007E5007F09AFE064631464FF07E5007F094
:103810001EFFC4EB041101EB4101BD4A02EB810123
:10382000886129464FF07E5007F087FE06462946FC
:103830004FF07E5007F0D3FE0746314607F007FFF2
:10384000C4EB041101EB4101B14A02EB8101C861F3
:103850000021C4EB041000EB400002EB8000016289
:10386000C4EB041000EB400002EB80004162A6486C
:10387000D0F858114FF0804007F0B7FE0646A34934
:1038800007F0B3FE054629464FF07E5007F055FE7F
:10389000064631464FF07E5007F0D9FEC4EB0411C6
:1038A00001EB41019A4A02EB8101886229464FF0FF
:1038B0007E5007F042FE064631464FF07E5007F03C
:1038C000C6FEC4EB041101EB4101914A02EB8101F8
:1038D000C86229464FF07E5007F02FFE0646294663
:1038E0004FF07E5007F07BFE0746314607F0AFFEF3
:1038F000C4EB041101EB4101854A02EB810108632D
:103900008449C4EB041000EB400002EB80004163EB
:10391000C4EB041000EB400002EB800081637A48A6
:10392000D0F85C114FF0804007F05FFE06467A4900
:1039300007F05BFE054629464FF07E5007F0FDFD7F
:10394000064631464FF07E5007F081FEC4EB04116D
:1039500001EB41016E4A02EB8101C86329464FF039
:103960007E5007F0EAFD064631464FF07E5007F0E4
:103970006EFEC4EB041101EB4101654A02EB8101CB
:10398000086429464FF07E5007F0D7FD06462946C9
:103990004FF07E5007F023FE0746314607F057FEF2
:1039A000C4EB041101EB4101594A02EB8101486467
:1039B0000021C4EB041000EB400002EB80008164A6
:1039C000C4EB041000EB400002EB8000C1644E48E1
:1039D000D0F860114FF0804007F007FE06464E49D0
:1039E00007F003FE054629464FF07E5007F0A5FD7F
:1039F000064631464FF07E5007F029FEC4EB041115
:103A000001EB4101424A02EB8101086529464FF072
:103A10007E5007F092FD064631464FF07E5007F08B
:103A200016FEC4EB041101EB4101394A02EB81019E
:103A3000486529464FF07E5007F07FFD064629462F
:103A40004FF07E5007F0CBFD0746314607F0FFFDF3
:103A5000C4EB041101EB41012D4A02EB81018865A1
:103A60000021C4EB041000EB400002EB8000C165B4
:103A7000C4EB041000EB400002EB8000016622481A
:103A8000D0F864114FF0804007F0AFFD06462249A0
:103A900007F0ABFD054629464FF07E5007F04DFD7F
:103AA000064631464FF07E5007F0D1FDC4EB0411BD
:103AB00001EB4101164A02EB8101486629464FF0AD
:103AC0007E5007F03AFD064631464FF07E5007F033
:103AD000BEFDC4EB041101EB41010D4A02EB810173
:103AE000886629464FF07E5007F027FD0646294696
:103AF0004FF07E5007F073FD0746314607F0A7FDF3
:103B0000C4EB04110AE00000800300200000FA4327
:103B1000840D00206DE71CC10000484201EB41010B
:103B2000A64A02EB8101C8660021C4EB041000EB39
:103B3000400002EB80000167C4EB041000EB400082
:103B400002EB800041679E48D0F868114FF080403A
:103B500007F04BFD06469B4907F047FD0546294601
:103B60004FF07E5007F0E9FC064631464FF07E509C
:103B700007F06DFDC4EB041101EB41018F4A02EB2C
:103B80008101886729464FF07E5007F0D6FC064633
:103B900031464FF07E5007F05AFDC4EB041101EBA3
:103BA0004101864A02EB8101C86729464FF07E50E9
:103BB00007F0C3FC064629464FF07E5007F00FFD84
:103BC0000746314607F043FDC4EB041101EB410108
:103BD0007A4A02EB8101C1F880000021C4EB041095
:103BE00000EB400002EB8000C0F88410C4EB04102E
:103BF00000EB400002EB8000C0F888107048D0F85D
:103C00006C114FF0804007F0F0FC06466D4907F05C
:103C1000ECFC054629464FF07E5007F08EFC064628
:103C200031464FF07E5007F012FDC4EB041101EB5A
:103C30004101624A02EB8101C1F88C0029464FF034
:103C40007E5007F07AFC064631464FF07E5007F072
:103C5000FEFCC4EB041101EB4101584A02EB810167
:103C6000C1F8900029464FF07E5007F066FC0646EA
:103C700029464FF07E5007F0B2FC0746314607F068
:103C8000E6FCC4EB041101EB41014C4A02EB81015B
:103C9000C1F894000021C4EB041000EB400002EBDB
:103CA0008000C0F89810C4EB041000EB400002EB59
:103CB0008000C0F89C104248D0F870114FF080404E
:103CC00007F093FC06463F4907F08FFC054629465E
:103CD0004FF07E5007F031FC064631464FF07E50E3
:103CE00007F0B5FCC4EB041101EB4101334A02EBD0
:103CF0008101C1F8A00029464FF07E5007F01DFC5D
:103D0000064631464FF07E5007F0A1FCC4EB04118B
:103D100001EB4101294A02EB8101C1F8A4002946C7
:103D20004FF07E5007F009FC064629464FF07E50C2
:103D300007F055FC0746314607F089FCC4EB041137
:103D400001EB41011D4A02EB8101C1F8A8000021ED
:103D5000C4EB041000EB400002EB8000C0F8AC1094
:103D6000C4EB041000EB400002EB8000C0F8B01080
:103D7000641C022CFFF6D8ACBDE8F0812DE9F047B9
:103D800005460C462169A06807F02FFC8046E168D3
:103D9000606807F02AFC81462846216807F025FC68
:103DA0008246494607F0C9FB0746414607F017FC23
:103DB0000646E56026613046BDE8F087840D0020A8
:103DC00080030020000048422DE9F04F87B0824672
:103DD000FE480168504607F03AFC8246FC495046CE
:103DE00007F003FC0446FB49FB48006807F0FDFBB5
:103DF0000546214607F0A1FB8246F748C0F800A01F
:103E00004FF07E51504607F0EAFB019007F050FE5C
:103E100021F00041CDE9020109F062FC80468946AB
:103E2000EE49086807F044FE42464B46CDE90401DE
:103E300007F0F2FC06460022E94B07F0EAFC0446D4
:103E400007F049FE83464FF07E52002101F0F2FF59
:103E5000E449086007B0BDE8F08F2DE9F04F87B066
:103E60008246DA480168504607F0F1FB8246D8499D
:103E7000504607F0BAFB0446D649DB48006807F015
:103E8000B4FB0546214607F058FB8246D648C0F8E9
:103E900000A04FF07E51504607F0A1FB019007F0C3
:103EA00007FE21F00041CDE9020109F019FC80462E
:103EB0008946CA49486807F0FBFD42464B46CDE9B2
:103EC000040107F0A9FC06460022C54B07F0A1FC3F
:103ED000044607F000FE83464FF07E52002101F0B9
:103EE000A9FFC049486007B0BDE8F08F2DE9FF4F3A
:103EF0008DB08B4692468AF00048404607F0D8FDC8
:103F000004460D468BF00048404607F0D1FD22469E
:103F10002B46CDE9000109F029F8064607F0DBFD44
:103F20000C908AF00040019007F0C2FD06460F4653
:103F30000D9807F0BDFD804632463B4609F016F865
:103F4000044607F0C8FD0B900C9809F0FDF90A90A3
:103F50000C9809F001FB09900B9809F0F5F908900D
:103F60000B9809F0F9FA07904FF07E500690002068
:103F70000590059880F000442046069909F0B6F8AF
:103F800004904FF07C510C9807F02FFB044609F089
:103F9000DBF90A904FF07C510C9807F026FB0446A1
:103FA00009F0DAFA09904FF07C510B9807F01DFBED
:103FB000044609F0C9F908904FF07C510B9807F0BE
:103FC00014FB044609F0C8FA07904FF07C5104989E
:103FD00007F00BFB044609F0B7F903904FF07C5152
:103FE000049807F002FB044609F0B6FA029007991C
:103FF000099807F0FAFA0646029907F0F6FA04461D
:1040000008990A9807F0F1FA0646039907F0EDFAC5
:104010000546214607F091FA7449086007990A9805
:1040200007F0E3FA0646029907F0DFFA0446DDE9F5
:10403000081007F0DAFA0646039907F0D6FA0546A3
:10404000214607F0CCFA6A490860DDE9081007F05C
:10405000CCFA0646029907F0C8FA044607990A986E
:1040600007F0C3FA0646039907F0BFFA0546214652
:1040700007F063FA5F4908600799099807F0B5FAF5
:104080000646039907F0B1FA044608990A9807F022
:10409000ACFA0646029907F0A8FA0546214607F051
:1040A0009EFA55490860514A1168106807F09DFA58
:1040B000524908604E4A11684C4A106807F095FA58
:1040C0004F4908604B4A1168484A106807F08DFA5A
:1040D0004C490860484A1168444A106807F085FA5C
:1040E00049490860424A1168106807F07EFA47495A
:1040F0000860404A11683E4A106807F076FA444961
:1041000008603D4A11683A4A106807F06EFA414962
:104110000860384A1168106807F067FA3E4908607D
:10412000354A1168334A106807F05FFA3B49086066
:10413000314A1168106807F058FA3949086011B01F
:10414000BDE8F08F2DE9FF4F8DB08B4692468AF087
:104150000048404607F0ACFC04460D468BF0004892
:10416000404607F0A5FC22462B46CDE9000108F0A9
:10417000FDFE064607F0AFFC0C908AF0004001906F
:1041800007F096FC06460F460D9807F091FC804616
:1041900032463B4608F0EAFE044607F09CFC0B90D2
:1041A0000C9809F0D1F80A900C9809F0D5F909900B
:1041B0000B9809F0C9F808900B9809F0CDF9079011
:1041C0004FF07E500690002005902BE02C0200203E
:1041D000CDCCCC3D6666663F6401002054010020D2
:1041E0000000F03F5C01002068010020D8000020A2
:1041F000E0000020E8000020F0000020F80000208F
:1042000000010020080100201001002018010020FA
:10421000200100202801002030010020380100206A
:1042200040010020059880F000442046069908F0DF
:104230005DFF04904FF07C510C9807F0D6F90446CE
:1042400009F082F80A904FF07C510C9807F0CDF9F4
:10425000044609F081F909904FF07C510B9807F062
:10426000C4F9044609F070F808904FF07C510B989F
:1042700007F0BBF9044609F06FF907904FF07C5145
:10428000049807F0B2F9044609F05EF803904FF085
:104290007C51049807F0A9F9044609F05DF90290F1
:1042A0000799099807F0A1F90646029907F09DF9C8
:1042B000044608990A9807F098F90646039907F00A
:1042C00094F90546214607F038F9FE4948600799F8
:1042D0000A9807F08AF90646029907F086F904461B
:1042E000DDE9081007F081F90646039907F07DF92A
:1042F0000546214607F073F9F3494860DDE90810E7
:1043000007F073F90646029907F06FF9044607991A
:104310000A9807F06AF90646039907F066F9054618
:10432000214607F00AF9E94948600799099807F01A
:104330005CF90646039907F058F9044608990A986B
:1043400007F053F90646029907F04FF90546214652
:1043500007F045F9DE494860DA4A5168506807F0CD
:1043600044F9DC494860D84A5168D64A506807F099
:104370003CF9D9494860D54A5168D24A506807F09B
:1043800034F9D6494860D24A5168CE4A506807F09D
:104390002CF9D3494860CC4A5168506807F025F998
:1043A000D0494860C94A5168C74A506807F01DF9AA
:1043B000CD494860C64A5168C34A506807F015F9AC
:1043C000CA494860C14A5168506807F00EF9C849A7
:1043D0004860BF4A5168BD4A506807F006F9C549B0
:1043E0004860BB4A5168506807F0FFF8C24948600E
:1043F00011B0BDE8F08F0FB5A1B0C048007858B932
:10440000DDE92901CDE9000126A90EC92498FFF7AD
:104410006DFD0120B9490870B848007801287DD1A8
:104420004FF07C512C9807F0E0F8B54908602799C7
:10443000084607F0DAF80A902699084607F0D5F8FA
:1044400008902499084607F0D0F80790089907F0DB
:1044500074F809900A9907F070F80B9007F028FBA0
:10446000CDE90C0109F03CF9CDE90E0107F033FB71
:1044700020900021209807F04BFB7DD02098FFF77B
:10448000A3FCA04800680F909F48406F0E900F99C2
:1044900007F0ABF89D4908609A4800680F909A4869
:1044A000806F0E900F9907F0A0F8994908604FF0BF
:1044B0007E50209907F0CBF81F901F99249807F0A1
:1044C00094F824901F99269807F08FF826901F994A
:1044D000279807F08AF82790804800680E90834854
:1044E00000680D900E9907F07AF84FF080410F9018
:1044F00007F07BF819907F4800680E9076480068B6
:104500000D900E9907F019F84FF080410F9007F0C9
:104510006CF81890734800680D9000E0FEE36D4859
:1045200000680C900D9907F05AF80E9070480068DA
:1045300001460D900E9807F052F80F906E480068F3
:1045400001460E900F9806F0F8FF179026991798DD
:1045500007F04BF80F902799189807F046F80E903F
:104560000F9907F03CF86B4908602799199807F0F4
:104570003CF80F90249900E099E0179807F035F87F
:104580000E900F9907F02BF863490860249918984A
:1045900007F02BF80F902699199807F026F80E903F
:1045A0000F9907F01CF85D490860584800680E90A4
:1045B000584800680D900E9907F017F80F90219950
:1045C00006F0BBFF2190514800680E9052480068E9
:1045D0000D900E9907F009F80F90229906F0ADFFA3
:1045E00022904A4800680E904C4800680D900E9941
:1045F00006F0FBFF0F90239906F09FFF239044489D
:10460000006800210F9007F08DFA50D240480068F2
:104610000E90404800680D900E9906F0E6FF0F904E
:104620003F48006801460E900F9806F086FF3C490F
:104630000860374800680E90374800680D900E9962
:1046400006F0D3FF0F903748006801460E900F9890
:1046500006F073FF334908602D4800680E902F481C
:1046600000680D900E9906F0C0FF0F902E4800686C
:1046700001460E900F9806F060FF2B49086028480D
:10468000006801460F90219806F057FF21902548B9
:10469000006801460F90229806F04FFF22902248B2
:1046A000006801460F90239806F047FF23902A994F
:1046B000084606F09AFF0A902999084606F095FFE9
:1046C000089033E0D8000020E0000020E80000203F
:1046D000F0000020F8000020000100200801002068
:1046E00010010020180100202001002028010020D6
:1046F000300100203801002040010020500100203E
:10470000480100205C01002080030020C800002038
:10471000D0000020680000207000002078000020F9
:104720008000002088000020900000202899084682
:1047300006F05BFF0790089906F0FFFE09900A99C2
:1047400006F0FBFE0B9007F0B3F9CDE90C0108F081
:10475000C7FFCDE90E0107F0BEF920902B98012884
:104760007ED10021209807F0D3F979D04FF07E5008
:10477000209906F06CFF1F901F99289806F035FFCE
:1047800028901F99299806F030FF29901F992A98A0
:1047900006F02BFF2A90FE4800680B90FD48006849
:1047A0000A900B9906F0C9FE0C902A9906F01DFF9D
:1047B0000E90F94800680990F84800680890099937
:1047C00006F00DFF0A90299906F00FFF0C90F448AF
:1047D0000068014608904FF07C5006F000FF0990F9
:1047E000F048006801460890099806F0F8FE0A9023
:1047F000289906F0FAFE0B900C9906F09EFE0D909B
:104800000E9906F09AFE4FF080410F9006F0EDFEF3
:104810001E90E54800680B90E44800680A900B99E8
:1048200006F0DDFE0C902A9906F0DFFE0E90E048BF
:104830000068014608904FF07C5006F0D0FE0990C9
:10484000D848006801460890099806F0C8FE0A900A
:10485000299906F0CAFE0C90CF480068099000E044
:10486000B6E1CE4800680890099906F066FE0A9005
:10487000289906F0BAFE0B900C9906F05EFE0D909A
:104880000E9906F05AFE4FF080410F9006F0ADFEF3
:104890001D90C748006801460A904FF07C5006F012
:1048A0009EFE0B90BE48006801460A900B9806F0E9
:1048B00096FE0C902A9906F098FE0E90BA48006871
:1048C0000990BA4800680890099906F036FE0A90E7
:1048D000299906F08AFE0C90AD4800680990AD4811
:1048E00000680890099906F07AFE0A90289906F067
:1048F0007CFE0B900C9906F020FE0D900E9906F0B0
:104900001CFE4FF080410F9006F06FFE1C901D9929
:10491000084606F06AFE0A901E99084606F065FEF3
:1049200009900A9906F009FE0B9007F0C1F8CDE94D
:104930000C0108F0D5FECDE90E0107F0CCF81B9074
:104940001C981A90924800680B90924800680A9050
:104950000B9906F044FE0C901A9906F046FE0E9054
:104960008F48006801460A904FF07C5006F037FEF1
:104970000B908C48006801460A900B9806F02FFEB9
:104980000C901B9906F031FE0D900E9906F0D5FDA6
:104990004FF080410F9006F028FE16908348006883
:1049A0000B90814800680A900B9906F0C6FD0C90A8
:1049B0001A9906F01AFE0E90774800680B90774817
:1049C00000680A900B9906F00AFE0C901B9906F0FD
:1049D0000CFE0D900E9906F0B0FD4FF080410F9047
:1049E00006F003FE15907248006801460A904FF0E9
:1049F0007C5006F0F4FD0B906948006801460A906F
:104A00000B9806F0ECFD0C901A9906F0EEFD0E9056
:104A1000604800680B905E4800680A900B9906F0A9
:104A20008CFD0C901B9906F0E0FD0D900E9906F0A0
:104A300084FD4FF080410F9006F0D7FD149015993A
:104A40002A9806F0D2FD0F901499299806F0CDFD12
:104A50000E900F9906F0C3FD5649086014992898E6
:104A600006F0C3FD0F9016992A9806F0BEFD0E9031
:104A70000F9906F0B4FD504908601699299806F080
:104A8000B4FD0F901599289806F0AFFD0E900F9980
:104A900006F0A5FD494908604948C06F0E90454899
:104AA00000680D900E9906F0A0FD0F90219906F078
:104AB00044FD21904248C06F0E903F4800680D9021
:104AC0000E9906F092FD0F90229906F036FD229085
:104AD0003B48C06F0E90394800680D900E9906F063
:104AE00084FD0F90239906F028FD23903448D0F8D8
:104AF000800000210F9007F015F875D23048D0F8EB
:104B000080000E902B4800680D900E9906F06DFD08
:104B10000F902C48006801460E900F9806F00DFD8E
:104B2000284908602648D0F880000E902248006886
:104B30000D900E9906F059FD0F902348006801462C
:104B40000E900F9806F0F9FC1F4908601C48D0F839
:104B500080000E90194800680D900E9906F045FDF2
:104B60000F901A48006801460E900F9806F0E5FC79
:104B7000164908601348006801460F90219806F016
:104B8000DCFC21901048006801460F90229820E03C
:104B90000801002028010020100100202001002031
:104BA00030010020400100200001002038010020D9
:104BB0001801002098000020A0000020A80000207C
:104BC00080030020B0000020B8000020C0000020BA
:104BD0000AE006F0B2FC2290FE48006801460F9001
:104BE000239806F0AAFC2390FB4800680C902399B8
:104BF00006F0FBFC0E90F94800680A90229906F036
:104C0000F4FC0C90F648006880F000400A9021996E
:104C100006F0EBFC0B900C9906F0E1FC0D900E9960
:104C200006F0DDFC0F90EF48006801460E900F98EB
:104C300006F0DBFC1390E84800680C90229906F01F
:104C4000D4FC0E90E54800680A90239906F0CDFC4C
:104C50000C90E548006801460A90219806F0C5FCD2
:104C60000B900C9906F069FC0D900E9906F0B7FCBC
:104C70000F90DC48006801460E900F9806F0B5FCD6
:104C80001290D548006801460C90219806F0ADFCC2
:104C90000E90D34800680A90239906F0A6FC0C9069
:104CA000D14800680A90229906F09FFC0B900C995D
:104CB00006F095FC0D900E9906F03FFC0F90C94848
:104CC000006801460E900F9806F08FFC1190C348C3
:104CD000006801460C90219806F087FC0E90C048B1
:104CE00000680A90229906F080FC0C90BE4800688B
:104CF0000A90239906F079FC0B900C9906F01DFCA4
:104D00000D900E9906F06BFC0F90B64800680146B6
:104D10000E900F9806F069FC109000E0B5E1B248E3
:104D200000680F90139906F008FCAF490860AC4882
:104D300000680F90129906F000FCA9490860A74886
:104D400000680F90119906F0F8FBA4490860A2488A
:104D500000680F90109906F0F0FB9F490860084624
:104D600000680690084600680590069906F03DFC2C
:104D700008909A4800680490984800680390049945
:104D800006F033FC0690964800680290944800684C
:104D90000190029906F029FC049093480068029063
:104DA000914800680190029906F01FFC0390049955
:104DB00006F0C3FB0590069906F0BFFB0790089923
:104DC00006F0BBFB099006F073FECDE90A0108F07E
:104DD00087FC02460B46CDE90C010020834906F012
:104DE0008DFDCDE90E0106F076FE1F907E4800682D
:104DF0000F901F9906F0F9FB7B490860784800681E
:104E00000F901F9906F0F1FB754908607348006820
:104E10000F901F9906F0E9FB704908606E48006822
:104E20000F901F9906F0E1FB6B4908606E4800681F
:104E30000F906D4800680E900F9906F0D6FB6C49F4
:104E40000860674800680F90674800680E900F99E7
:104E500006F0CBFB67490860604800680F90624825
:104E600000680E900F9906F0C0FB634908605A482D
:104E700000680F905C4800680E900F9906F0B5FB33
:104E80005E490860564800680F90554800680E90CB
:104E90000F9906F0AAFB5A490860504800680F9025
:104EA0004F4800680E900F9906F09FFB5549086027
:104EB000494800680F904A4800680E900F9906F024
:104EC00094FB51490860454800680F9043480068CA
:104ED0000E900F9906F089FB4C4908603E48006827
:104EE0000F903E4800680E900F9906F07EFB4849EF
:104EF0000860394800680F90374800680E900F9995
:104F000006F073FB434908603D4800680B90384841
:104F100000680A900B9906F062FB0C903B48006811
:104F200001460B900C9806F05AFB0D90394800682A
:104F300001460C900D9806F000FB0F903448006875
:104F40000C902C4800680B900C9906F0F6FA4FF084
:104F500080410D9006F049FB0E900F9908F0C6F8BD
:104F60002D498861244800680D90274800680C90FE
:104F70000D9906F034FB4FF080410E9006F035FBA2
:104F80000F9007F051FE80F000412348C1611C489A
:104F900000680B90164800680A900B9906F0CDFA4D
:104FA0000C901A48006801460B900C9806F017FB0D
:104FB0000D901848006801460C900D9806F00FFB04
:104FC0000F900E4800680C900E4800680B900C99EA
:104FD00024E00000C0000020F0000020E8000020D5
:104FE000E000002048010020D80000200000F03F31
:104FF000F80000200001002008010020100100201E
:10500000180100202001002028010020300100208C
:105010003801002040010020F404002006F08DFA41
:105020004FF080410D9006F0E0FA0E900F9908F0D5
:105030005DF8FE49086208468069FD490D9006F05A
:10504000D4FA0E9006F0E8FC01460F90F9A001F0AA
:1050500029FEF648C069F6490D9006F0C6FA0E9092
:1050600006F0DAFC01460F90F6A001F01BFEEF48B7
:10507000006AEF490D9006F0B8FA0E9006F0CCFCED
:1050800001460F90F3A001F00DFE25B000BD0FB555
:10509000A1B0F348007858B9DDE92901CDE9000154
:1050A00026A90EC92498FFF74DF80120EC49087095
:1050B000EB48007801287DD14FF07C512C9806F008
:1050C00094FAE84948602799084606F08EFA0A9053
:1050D0002699084606F089FA08902499084606F0B1
:1050E00084FA0790089906F028FA09900A9906F0C0
:1050F00024FA0B9006F0DCFCCDE90C0108F0F0FA84
:10510000CDE90E0106F0E7FC20900021209806F082
:10511000FFFC7DD02098FEF7A0FED34840680F909A
:10512000D248406F0E900F9906F05FFAD049486060
:10513000CD4840680F90CD48806F0E900F9906F0D3
:1051400054FACC4948604FF07E50209906F07FFA1F
:105150001F901F99249806F048FA24901F992698CA
:1051600006F043FA26901F99279806F03EFA2790FA
:10517000C14840680E90C14840680D900E9906F0F5
:105180002EFA4FF080410F9006F02FFA1990BC488C
:1051900040680E90BB4840680D900E9906F0CDF91E
:1051A0004FF080410F9006F020FA1890B648406802
:1051B0000D9000E0FDE3B54840680C900D9906F0B5
:1051C0000EFA0E90B248406801460D900E9806F017
:1051D00006FA0F90AF48406801460E900F9806F00F
:1051E000ACF917902699179806F0FFF90F902799B8
:1051F000189806F0FAF90E900F9906F0F0F9A64902
:1052000048602799199806F0F0F90F90249900E06A
:1052100099E0179806F0E9F90E900F9906F0DFF97A
:105220009E4948602499189806F0DFF90F90269956
:10523000199806F0DAF90E900F9906F0D0F998490E
:1052400048608B4840680E90934840680D900E99D6
:1052500006F0CBF90F90219906F06FF92190844860
:1052600040680E908D4840680D900E9906F0BDF98B
:105270000F90229906F061F922907D4840680E90C7
:10528000874840680D900E9906F0AFF90F9023996A
:1052900006F053F923907748406800210F9006F0FC
:1052A00041FC50D2734840680E907B4840680D9096
:1052B0000E9906F09AF90F907A48406801460E90D0
:1052C0000F9806F03AF9774948606A4840680E90AE
:1052D000724840680D900E9906F087F90F90724859
:1052E000406801460E900F9806F027F96E49486015
:1052F000604840680E906A4840680D900E9906F02C
:1053000074F90F906948406801460E900F9806F0B6
:1053100014F9664948606348406801460F90219837
:1053200006F00BF921906048406801460F902298E2
:1053300006F003F922905D48406801460F902398DB
:1053400006F0FBF823902A99084606F04EF90A90D9
:105350002999084606F049F908902899084606F068
:1053600044F90790089906F0E8F809900A9906F0C0
:10537000E4F80B9006F09CFBCDE90C0108F0B0F9C5
:10538000CDE90E0106F0A7FB20902B9801284BD108
:105390000021209806F0BCFB46D04FF07E502099AB
:1053A00006F055F91F901F99289806F01EF92890CD
:1053B0001F99299806F019F929901F992A9806F043
:1053C00014F92A902C4840680B902C4840680A90A9
:1053D0000B9906F0B2F80C902A9906F006F90E9097
:1053E000334840680990334840680890099906F0AE
:1053F000F6F80A90299906F0F8F80C9024484068CD
:10540000014608904FF07C5006F0E9F809902148D9
:10541000406801460890099806F0E1F80A9028993A
:1054200006F0E3F80B9047E01AE20000F4040020D5
:105430000000C8420D0A20524F4C4C5B305D2025C5
:10544000642000002050495443485B305D202564AF
:1054500020000000205941575B305D20256420006A
:1054600051010020480100205C0100208003002041
:10547000C8000020D00000200801002028010020E2
:10548000380100200001002018010020F800002051
:105490003001002040010020680000207000002042
:1054A000780000208000002088000020900000206C
:1054B00010010020200100200C9906F03EF80D900C
:1054C0000E9906F03AF84FF080410F9006F08DF8F3
:1054D0001E90FE4840680B90FD4840680A900B996A
:1054E00006F07DF80C902A9906F07FF80E90F948A6
:1054F0004068014608904FF07C5006F070F8099023
:10550000F548406801460890099806F068F80A9046
:10551000299906F06AF80C90F04840680990F04824
:1055200040680890099906F008F80A90289906F052
:105530005CF80B900C9906F000F80D900E9905F0B0
:10554000FCFF4FF080410F9006F04FF81D90E148AE
:10555000406801460A904FF07C5006F040F80B90EE
:10556000E048406801460A900B9806F038F80C9025
:105570002A9906F03AF80E90D44840680990D44829
:1055800040680890099905F0D8FF0A90299906F01B
:105590002CF80C90D44840680990D4484068089092
:1055A000099906F01CF80A90289906F01EF80B904D
:1055B0000C9905F0C2FF0D900E9905F0BEFF4FF05B
:1055C00080410F9006F011F81C901D99084606F0D6
:1055D0000CF80A901E99084606F007F809900A99F7
:1055E00005F0ABFF0B9006F063FACDE90C0108F073
:1055F00077F8CDE90E0106F06EFA1B901C981A9010
:10560000B94840680B90B94840680A900B9905F07A
:10561000E6FF0C901A9905F0E8FF0E90B14840683B
:1056200001460A904FF07C5005F0D9FF0B90AA4834
:10563000406801460A900B9805F0D1FF0C901B9929
:1056400005F0D3FF0D900E9905F077FF4FF08041E4
:105650000F9005F0CAFF16909D4840680B909B483C
:1056600040680A900B9905F068FF0C901A9905F0B4
:10567000BCFF0E90994840680B90994840680A908A
:105680000B9905F0ACFF0C901B9905F0AEFF0D9047
:105690000E9905F052FF4FF080410F9005F0A5FFE5
:1056A00015908C48406801460A904FF07C5005F0F8
:1056B00096FF0B908B48406801460A900B9805F0C6
:1056C0008EFF0C901A9905F090FF0E908748406865
:1056D0000B90854840680A900B9905F02EFF0C90BE
:1056E0001B9905F082FF0D900E9905F026FF4FF0F3
:1056F00080410F9005F079FF149015992A9805F0D4
:1057000074FF0F901499299805F06FFF0E900F9970
:1057100005F065FF764948601499289805F065FF03
:105720000F9016992A9805F060FF0E900F9905F0DA
:1057300056FF704948601699299805F056FF0F905A
:105740001599289805F051FF0E900F9905F047FF25
:10575000694948606948C06F0E90654840680D907F
:105760000E9905F042FF0F90219905F0E6FE219079
:105770006248C06F0E905F4840680D900E9905F02A
:1057800034FF0F90229905F0D8FE22905B48C06F3D
:105790000E90594840680D900E9905F026FF0F9025
:1057A000239905F0CAFE23905448D0F880000021C8
:1057B0000F9006F0B7F953D25048D0F880000E9001
:1057C0004B4840680D900E9905F00FFF0F904C4824
:1057D000406801460E900F9805F0AFFE48494860BA
:1057E0004648D0F880000E90424840680D900E99CF
:1057F00005F0FBFE0F904348406801460E900F985D
:1058000005F09BFE3F4948603C48D0F880000E9070
:10581000394840680D900E9905F0E7FE0F903A4820
:10582000406801460E900F9805F087FE36494860A3
:105830003348406801460F90219805F07EFE219084
:105840003048406801460F90229805F076FE22907D
:105850002D48406801460F90239805F06EFE239076
:105860002A4840680C90239905F0BFFE0E90284806
:1058700040680A90229905F0B8FE0C9025484068CF
:1058800080F000400A90219905F0AFFE0B900C9932
:1058900005F0A5FE0D900E9905F0A1FE0F901E4893
:1058A000406801460E900F9805F09FFE1390174830
:1058B00040680C90229905F098FE0E9014484068BC
:1058C0000A90239905F091FE0C9027E0000100203A
:1058D00038010020180100204001002010010020A4
:1058E00020010020300100200801002028010020B4
:1058F00098000020A0000020A800002080030020C5
:10590000B0000020B8000020C0000020F0000020FF
:10591000E8000020E000002048010020FB4840682B
:1059200001460A90219805F060FE0B900C9905F055
:1059300004FE0D900E9905F052FE0F90F448406859
:1059400001460E900F9805F050FE1290F148406805
:1059500001460C90219805F048FE0E90EE484068F4
:105960000A90239905F041FE0C90E84840680A909F
:10597000229905F03AFE0B900C9905F030FE0D903F
:105980000E9905F0DAFD0F90E148406801460E904F
:105990000F9805F02AFE1190E048406801460C90EF
:1059A000219805F022FE0E90DB4840680A9022996B
:1059B00000E0A9E105F019FE0C90D44840680A9077
:1059C000239905F012FE0B900C9905F0B6FD0D9091
:1059D0000E9905F004FE0F90CD48406801460E90E8
:1059E0000F9805F002FE1090C84840680F90139978
:1059F00005F0A3FDC5494860C74840680F9012995B
:105A000005F09BFDC4494860C44840680F90119957
:105A100005F093FDC1494860BE4840680F90109959
:105A200005F08BFDBB494860084640680690084673
:105A300040680590069905F0D8FD0890B748406881
:105A40000490B64840680390049905F0CEFD069096
:105A5000B14840680290B04840680190029905F052
:105A6000C4FD0490A94840680290A848406801908D
:105A7000029905F0BAFD0390049905F05EFD0590CA
:105A8000069905F05AFD0790089905F056FD099012
:105A900006F00EF8CDE90A0107F022FE02460B4699
:105AA000CDE90C0100209E4905F028FFCDE90E014B
:105AB00006F011F81F90954840680F901F9905F067
:105AC00094FD92494860944840680F901F9905F0F2
:105AD0008CFD91494860914840680F901F9905F0EE
