:020000040800F2
:10000000D81E002065010008994E00089B4E00088C
:10001000A54E0008AF4E0008B94E000800000000D1
:10002000000000000000000000000000C34E0008B7
:10003000C54E000800000000C74E0008BB70000855
:100040007F0100087F0100087F0100087F01000890
:100050007F0100087F0100087F0100087F01000880
:100060007F010008DF6E0008376F00087F0100087D
:100070007F0100087F0100087F0100087F01000860
:100080007F0100087F0100087F0100087F01000850
:10009000C94E00087F0100087F0100088F6F00082B
:1000A0007F0100087F0100087F0100087F01000830
:1000B000D16700086B680008196900088F6500089F
:1000C0009F6100089F650008976500087F01000890
:1000D0007F0100087F0100087F0100087F01000800
:1000E0007F0100087F010008D14E00087F01000851
:1000F0007F0100087F0100087F0100087F010008E0
:100100007F0100087F0100087F0100087F010008CF
:100110007F7700087F0100087F0100087F01000849
:100120007F0100087F0100087F0100087F010008AF
:10013000DFF80CD00DF050FB0048004789010008A3
:10014000D81E0020EFF30980704780F309887047BC
:10015000EFF30880704780F30888704740BA704713
:10016000C0BA70470648804706480047FEE7FEE7EA
:10017000FEE7FEE7FEE7FEE7FEE7FEE7FEE7FEE757
:100180005B2B00083101000888B007F04EF803F03F
:100190003BF90120D5490870A6E1D548007898B10F
:1001A0000020D349087006F06EFF0446D14800686D
:1001B000201AD1490860CF48046004F02FFC06F0F3
:1001C00062FF001BCD490860CD480078002858D058
:1001D0000020CB49087006F056FF0446C948006865
:1001E000201AC9490860C7480460C8480078012837
:1001F00040D1C749B1F900000DF02BF80646C548BB
:10020000016830460CF02DFE0546C348416B284678
:100210000CF021FEC1490863BD49B1F902000DF09F
:1002200018F80646BB48416830460CF01AFE0546F1
:10023000B948816B28460CF00EFEB8494863B449B2
:10024000B1F904000DF005F80646B2488168304661
:100250000CF007FE0546B048C16B28460CF0FBFDCC
:1002600080F00041AD4881630020A849087001205A
:10027000AB49087008F057F806F005FF001BA949C4
:100280000860A948007800287DD00020A6490870A1
:1002900006F0F9FE0446A5480068201AA449086043
:1002A000A24804600021A34802F00AF9A14802F024
:1002B000BEFBA149088000219E4802F095FB012168
:1002C0009C4802F0FDF89C4800880CF0CBFF0546E6
:1002D0009A490CF0C6FD9A4908609A49B1F90000A4
:1002E0000CF0B7FF06469848016830460CF0B3FDA5
:1002F000054696490CF0B5FD884908609149B1F969
:1003000002000CF0A6FF06468F48416830460CF00C
:10031000A2FD05468D490CF0A4FD8049486089493D
:10032000B1F904000CF095FF064687488168304615
:100330000CF091FD80F00045844928460CF091FDB9
:10034000764988608249B1F900000CF082FF0746C7
:100350008048016838460CF07EFD06467E480168FC
:1003600030460CF078FD05467C490CF07AFD6B496F
:1003700048627749B1F902000CF06BFF07467548F7
:100380004168384600E070E00CF065FD06467248B2
:10039000416830460CF05FFD054670490CF061FD88
:1003A0005E4988626A49B1F904000CF052FF0746C1
:1003B0006848816838460CF04EFD064666488168FC
:1003C00030460CF048FD80F00045644928460CF0AA
:1003D00048FD5249C8625A48006801F124030A46A0
:1003E0000C3100905E4803F097F84C4908685D496D
:1003F00003F0E2FB4949086048685A49143103F0A8
:10040000DBFB4649486088685649283103F0D4FB35
:10041000424988604A480268414803780846816B2F
:10042000406BCDE90532CDE903013C48016B8068A2
:100430003A4A5268394DCDE9002002912B68EA6AA8
:10044000A96A686A03F04FFD0020354908703C48EE
:10045000006802F039FD06F016FE001B42490860F4
:100460004FF48051414800F07CFB4148007888B14E
:1004700000203F49087006F006FE04463D4800682B
:10048000201A3D4908603B48046006F0FCFD001B53
:100490003A4908603A48007888B100203849087025
:1004A00006F0F1FD044637480068201A3649086016
:1004B0003448046006F0E7FD001B34490860344806
:1004C000007888B100203249087006F0DCFD04464F
:1004D00030480068201A304908602E48046006F051
:1004E000D2FD001B2D49086057E60000A401002042
:1004F00048010020780100207001002074010020D4
:1005000049010020840100207C010020B30100206B
:10051000AC010020141A00202003002064040020F5
:10052000B20100208001002046010020600100206F
:10053000580100200010004008000020BD3706359B
:10054000A0010020B8010020201A002057E79C3AA3
:10055000C40100202C1A0020381A0020A8B38B39BF
:10056000C4040020D00C00205C010020000C0140DD
:10057000470100206C010020640100206801002078
:100580004A01002090010020880100208C010020F9
:100590004B0100209C0100209401002098010020C4
:1005A000DF48006840F00100DD4908600846406807
:1005B000DC490840DA49486008460068DA490840E2
:1005C000D74908600846006820F480200860084683
:1005D000406820F4FE0048604FF41F0088607047B8
:1005E000CF49096821F48031CD4A1160114609686C
:1005F00021F480211160B0F5803F03D0B0F5802F49
:100600000ED106E0C649096841F48031C44A116040
:1006100007E0C349096841F4A021C14A116000E024
:1006200000BF00BF704710B5014600220023002024
:100630004A11012A02D1BA4C236806E0022A02D1EB
:10064000B74C236A01E0B64C636A01F01F02012433
:1006500094401C400CB1012000E0002010BD38B5D2
:10066000002000900024002500BF3120FFF7DBFFB1
:1006700005460098401C00900098B0F5A06F01D08E
:10068000002DF2D03120FFF7CEFF08B1012400E0A9
:100690000024204638BD01460020A14A106820F001
:1006A000F80040EAC10010607047A0490860704738
:1006B000024600209A4B586820F47C1042EA01035D
:1006C0001843974B58607047984908667047014631
:1006D0000020934A506820F00300084350607047A0
:1006E0008F48406800F00C007047014600208C4A9B
:1006F000506820F0F0000843506070470146002029
:10070000874A506820F4E060084350607047014613
:100710000020834A506820F4605040EAC1005060D5
:10072000704729B17E4A527A02437D4B5A7204E0E7
:100730007B4A527A82437A4B5A7270477B49D8314E
:100740000860704701460020754A506820F4404018
:100750000843506070470021714A20321170704A7E
:1007600082F82010012802D004280AD104E00121D7
:100770006B4A2032117005E00521694A2032117060
:1007800000E000BF00BF70476949086070476449D6
:10079000096A0143624A1162704765494439086039
:1007A000704730B500210022002400235C4D6D68A5
:1007B00005F00C0121B1042905D0082923D105E059
:1007C0005C4D056022E05B4D05601FE0544D6D6897
:1007D00005F47012524D6D6805F48034022505EB66
:1007E00092421CB9544D554305600BE04C4D6D6869
:1007F00005F400351DB1504D5543056002E04D4DE7
:100800005543056002E04B4D056000BF00BF444DFD
:100810006D6805F0F0010909484D6B5C0568DD4025
:1008200045603F4D6D6805F4E061090A434D6B5C1E
:100830004568DD4085603A4D6D6805F46051C90A30
:100840003E4D6B5C4568DD40C560354D6D6805F417
:100850004041890B3A4D6B5CC568B5FBF3F505610A
:1008600030BD29B12E4A526902432D4B5A6104E032
:100870002B4A526982432A4B5A61704729B1284A50
:1008800092690243264B9A6104E0254A92698243A9
:10089000234B9A61704729B1214AD2690243204B08
:1008A000DA6104E01E4AD26982431D4BDA61704767
:1008B00029B11B4AD2680243194BDA6004E0184A96
:1008C000D2688243164BDA60704729B1144A126924
:1008D0000243134B1A6104E0114A12698243104B20
:1008E0001A61704712494039086070470F49C8645F
:1008F00070470B49C87170470948406A40F08070E2
:1009000007494862704701460020054A92680A403C
:100910000AB1012000E00020704701498872704749
:10092000001002400000FFF8FFFFF6FE0000424208
:100930008004424200127A0000093D000A000020B3
:100940001A00002010B50446CC48844208D1012189
:100950000420FFF7ADFF00210420FFF7A9FF46E0C8
:10096000C748844208D101210820FFF7A1FF0021D8
:100970000820FFF79DFF3AE0C248844208D10121D8
:100980001020FFF795FF00211020FFF791FF2EE0C8
:10099000BD48844208D101212020FFF789FF0021B2
:1009A0002020FFF785FF22E0B848844208D10121CA
:1009B0004020FFF77DFF00214020FFF779FF16E080
:1009C000B348844208D101218020FFF771FF002144
:1009D0008020FFF76DFF0AE0AE48844207D1012175
:1009E0008015FFF765FF0021A015FFF761FF10BD1F
:1009F00010B501210846FFF75BFF00210120FFF73A
:100A000057FF10BD2DE9F0410246002500260020C9
:100A100000230024002791F803C00CF00F0591F883
:100A200003C00CF0100CBCF1000F03D091F802C011
:100A30004CEA050591F800C0BCF1000F31D01468F4
:100A400000202BE04FF0010C0CFA00F3B1F800C0CD
:100A50000CEA03069E4220D183004FF00F0C0CFAE3
:100A600003F7BC4305FA03FC4CEA040491F803C005
:100A7000BCF1280F06D14FF0010C0CFA00FCC2F8B3
:100A800014C00AE091F803C0BCF1480F05D14FF043
:100A9000010C0CFA00FCC2F810C0401C0828D1D38D
:100AA0001460B1F800C0BCF1FF0F34DD54680020C1
:100AB0002EE000F1080C4FF0010808FA0CF3B1F831
:100AC00000C00CEA03069E4221D183004FF00F0CB8
:100AD0000CFA03F7BC4305FA03FC4CEA040491F852
:100AE00003C0BCF1280F05D100F1080C08FA0CF87E
:100AF000C2F8148091F803C0BCF1480F07D100F18F
:100B0000080C4FF0010808FA0CF8C2F81080401CDD
:100B10000828CED35460BDE8F0814FF6FF71018004
:100B2000022181700421C170704702460020936841
:100B30000B400BB1012000E000207047014688689F
:100B400080B2704702460020D3680B400BB10120F1
:100B500000E0002070470146C86880B2704701611C
:100B60007047416170470AB1016100E0416170471F
:100B7000C16070474FF480320A43826181618261B3
:100B800082698269704702460020434B18684FF61D
:100B90008073184040EA021008433F4B18607047CA
:100BA0003E49C8617047F0B50A4600230024002181
:100BB000002500F00046B6F1004F02D1364EF16933
:100BC00001E0354E7168C0F3034583B200F440166E
:100BD000B6F5401F08D121F070612F4E766826F0DF
:100BE00070662D4F7E6012E000F48016B6F5801F0F
:100BF00006D1032606FA05F4A14341F0706106E030
:100C0000460D360103FA06F6B14341F0706122B198
:100C1000460D360103FA06F6314300F00046B6F100
:100C2000004F02D11C4EF16101E01B4E7160F0BD1E
:100C300030B500228B071C0F0F2303FA04F2164B6A
:100C400008338C1053F824309343134C08348D1020
:100C500044F8253023468C1053F824308C07240F99
:100C600000FA04F423430C4C08348D1044F825306A
:100C700030BD0A49DC3108607047000000080140BF
:100C8000000C014000100140001401400018014018
:100C9000001C0140002001400000014000002042F3
:100CA00010B50446FB48844209D101218803FFF7AF
:100CB000FFFD00214FF48040FFF7FAFD32E0F648D7
:100CC000844209D101214804FFF7FFFD00214FF4C0
:100CD0000030FFF7FAFD25E0F048844209D10121F8
:100CE0008804FFF7F2FD00214FF48020FFF7EDFDAF
:100CF00018E0EB48844209D10121C804FFF7E5FD63
:100D000000214FF40020FFF7E0FD0BE0E5488442AE
:100D100008D101210805FFF7D8FD00214FF480100C
:100D2000FFF7D3FD10BD2DE9F04786B005460E460E
:100D30000024A24600BFA1460027B08900B100BF31
:100D40002F462C8A4CF6FF700440F08804432C8216
:100D5000AC894EF6F3100440B0883189084371899C
:100D600008430443AC81AC8A4FF6FF400440B0898D
:100D70000443AC8201A8FFF714FDC648874202D1A4
:100D8000DDF810A001E0DDF80CA0A88900F4004017
:100D900040B10AEBCA0000EB0A1031684900B0FB11
:100DA000F1F807E00AEBCA0000EB0A10316889008D
:100DB000B0FBF1F86420B8FBF0F0040120096421D5
:100DC00001FB1089A88900F4004040B1322000EBFB
:100DD000C900B0FBF1F000F00700044308E0322046
:100DE00000EB09106421B0FBF1F000F00F000443A8
:100DF0002C8106B0BDE8F0874FF416510160002148
:100E00008180C18001810C21418100218181704755
:100E100010B502460020108A4FF2FF0318400B88DD
:100E20004C8823438C882343CC8823431843108267
:100E300010BD0021018041808180C180704721B1B7
:100E4000828942F40052828104E082894DF6FF7368
:100E50001A4082817047F0B5034600240026002521
:100E6000002040F66A17B94200D100BF1846C1F30E
:100E7000421401F01F06012707FA06F5012C01D1E3
:100E80000C3004E0022C01D1103000E014301AB113
:100E900007682F43076002E00768AF430760F0BDB3
:100EA0001AB1838A0B43838202E0838A8B43838255
:100EB0007047028A4FF6F0731A400282028A0A4390
:100EC0000282704782894FF2FF731A4082818289C1
:100ED0000A438281704721B1828942F002028281F5
:100EE00004E082894FF6FD731A4082817047028ABE
:100EF0004FF6DF731A400282028A0A430282704769
:100F000021B1028A42F48042028204E0028A4BF656
:100F1000FF731A4002827047C1F308028280704753
:100F200001468888C0F308007047818941F00101BB
:100F300081817047028BD2B20283028B42EA012286
:100F400002837047028B02F47F420283028B0A43C2
:100F50000283704721B1828A42F02002828204E03B
:100F6000828A4FF6DF731A408282704721B1828AEB
:100F700042F01002828204E0828A4FF6EF731A4038
:100F80008282704721B1828A42F00802828204E0A4
:100F9000828A4FF6F7731A408282704721B18289A4
:100FA00042F40042828103E08289C2F30E02828110
:100FB000704721B1828A42F40062828204E0828A10
:100FC0004FF2FF731A4082827047828A4FF6FB739A
:100FD0001A408282828A0A438282704721B1828AC1
:100FE00042F00202828204E0828A4FF6FD731A40C8
:100FF0008282704702460020B1F5007F00D100BF19
:1010000013880B400BB1012000E00020704701F471
:101010000072B2F5007F00D100BFCA430280704762
:1010200070B50246002400230025002040F66A1611
:10103000B14200D100BFC1F3421501F01F030126E8
:1010400006FA03F3012D02D19689334006E0022D02
:1010500002D1168A334001E0968A33400C120126F1
:1010600006FA04F41688344013B10CB1012000E0F4
:10107000002070BD10B50022002340F66A14A14282
:1010800000D100BF0A1201249440A3B2DC430480C3
:1010900010BD0000003801400044004000480040FE
:1010A000004C00400050004031490143314A11607A
:1010B000704770B5002100230F22C47804B32D4C73
:1010C000246804F4E064C4F5E064210AC1F1040377
:1010D000CA40447804FA03F184781440214309019A
:1010E000254C0678A155047804F01F050124AC4076
:1010F00005786D11AD0005F1E025C5F8004109E066
:10110000047804F01F050124AC401C4D06787611CC
:1011100045F8264070BD1A4A0A400243154B1B1F72
:101120001A60704739B1134A121D12680243114BFD
:101130001B1D1A6006E00F4A121D126882430D4BF8
:101140001B1D1A607047042808D14FF0E02109697F
:1011500041F004014FF0E022116107E04FF0E0217F
:10116000096921F004014FF0E0221161704700008D
:101170000000FA050CED00E000E400E080E100E092
:1011800080FFFF1F002044490860091D0860091DF9
:101190000860091D086041483F49143108607047E4
:1011A00000213D498279002A3AD00A461268036834
:1011B0009A430B461A600A1D126803689A430B1D76
:1011C0001A60027911440A6803681A430A60324AB5
:1011D0000832126803689A432F4B08331A601A1DAD
:1011E000126803689A432C4B0C331A604279102A18
:1011F0000ED11A1F126803681A43274B08331A606E
:101200001A1D126803681A43234B0C331A600DE051
:101210002149427911440A6803681A430A6005E0CB
:10122000027911440A6803689A430A6070470021F2
:10123000016001710C2141710021817170471649D3
:10124000103109680143144A103211607047014699
:101250000020114A143212680A400AB1012000E04D
:10126000002070470C491431086070470146002087
:101270000022094B1B6803EA0102074B14331B6869
:101280000B4013B10AB1012000E000207047024971
:10129000143108607047000000040140FFFF0F0098
:1012A00001460020FE4A106800F038000843106034
:1012B0007047FB49096821F00801F94A116011469D
:1012C0000968014311607047F549096821F0100170
:1012D000F34A116011460968014311607047F148F3
:1012E000EF494860F04848607047EE48EC49486074
:1012F000ED4848607047EA48006940F08000E849DE
:1013000008617047E648006940F08000E4490861E0
:1013100070470420E249C96801F0010109B10120C8
:101320000EE0DF49C96801F0040109B1022007E0BD
:10133000DB49C96801F0100109B1032000E0042075
:10134000704700B502460423FFF7E3FF034603E0BE
:10135000FFF7DFFF0346521E012B01D1002AF7D110
:1013600002B90523184600BD30B5044604254FF4E4
:101370003020FFF7E6FF0546042D17D1C848006965
:1013800040F00200C649086108464461006940F027
:10139000400008614FF43020FFF7D3FF0546C048F6
:1013A000006941F6FD710840BD490861284630BD1D
:1013B00010B504244FF43020FFF7C3FF0446042C7B
:1013C00016D1B748006940F00400B54908610846E5
:1013D000006940F0400008614FF43020FFF7B1FF92
:1013E0000446AF48006941F6FB710840AC4908610A
:1013F000204610BD00B502460423FFF78AFF0346CE
:1014000003E0FFF786FF0346521E012B01D1002A9D
:10141000F7D102B90523184600BD10B504244FF4D6
:101420003020FFF7E7FF0446042C16D19C480069E2
:1014300040F004009A4908610846006940F0400005
:1014400008614FF43020FFF7D5FF04469448006947
:1014500041F6FB71084092490861204610BD00200A
:101460008F49C96901F0020109B1012000E00020A3
:10147000704730B5A5250424FFF7F1FF00B1002522
:101480004FF43020FFF75DFF0446042C3AD1854825
:1014900083498860844888600846006940F02000DD
:1014A00008610846006940F0400008614FF43020B0
:1014B000FFF747FF0446042C1BD17948006941F629
:1014C000DF710840764908610846006940F0100065
:1014D000086176480580E002FFF733FF0446052CDB
:1014E00010D06F48006941F6EF7108406C490861FF
:1014F00008E0052C06D06A48006941F6EF71084003
:1015000067490861204630BD78B506460C4604257B
:1015100000200090E802FFF714FF0546042D24D1B7
:101520005F48006940F001005D4908613480E802CD
:10153000FFF707FF0546042D10D1B01C0090200CCA
:1015400000990880E802FFF7FCFE05465448006950
:1015500041F6FE7108405249086106E050480069B2
:1015600041F6FE7108404E490861284678BD70B5C5
:1015700004460D460426F002FFF7E3FE0646042E5D
:1015800011D14748006940F00100454908612580B4
:10159000F002FFF7D6FE06464148006941F6FE71AB
:1015A00008403F490861304670BD70B505460E469B
:1015B0000424E002FFF7C5FE0446042C17D1394885
:1015C00037498860384888600846006940F0100054
:1015D00008612E80E002FFF7B4FE0446052C06D019
:1015E0002F48006941F6EF7108402D4908612046F7
:1015F00070BD2DE9F04304464FF6FF763746B046FE
:10160000B1460425E443E6B2C4F30727C4F3074810
:101610004FEA1469E802FFF794FE0546042D49D10C
:1016200020481F498860204888600846006940F0CB
:1016300010000861FF2E06D01C4808300680E80222
:10164000FFF77FFE0546042D08D1FF2F06D017486F
:101650000A300780E802FFF774FE0546042D0AD120
:10166000B8F1FF0F07D011480C30A0F80080E80255
:10167000FFF767FE0546042D0AD1B9F1FF0F07D029
:101680000A480E30A0F80090E802FFF75AFE05461F
:10169000052D0FD00248006941F6EF71084007E0C0
:1016A0000020024023016745AB89EFCD00F8FF1F02
:1016B000664908612846BDE8F08330B50546042434
:1016C0004FF43020FFF73DFE0446042C41D1604822
:1016D0005E4988605F4888600846006940F02000E5
:1016E00008610846006940F0400008614FF430206E
:1016F000FFF727FE0446042C22D15448006941F626
:10170000DF710840514908610846006940F0100047
:1017100008611DB100205049088002E0A5204E4913
:1017200008804FF43020FFF70CFE0446052C10D043
:101730004648006941F6EF7108404449086108E0F5
:10174000052C06D04148006941F6DF7108403F4949
:101750000861204630BDF0B505460E461746042404
:101760003B483A4988603B488860E002FFF7E9FD62
:101770000446042C19D13548006940F01000334963
:10178000086147F0F800304328433349891C08803A
:10179000E002FFF7D6FD0446052C06D02B48006971
:1017A00041F6EF710840294908612046F0BD2748FD
:1017B000C069800870472548006A704700202349A7
:1017C000096801F0200109B1012000E00020704704
:1017D00029B11E4A126902431C4B1A6104E01B4ADC
:1017E00012698243194B1A61704701460020012992
:1017F00008D1164AD26902F001020AB1012008E0BC
:10180000002006E0114AD2680A400AB1012000E037
:10181000002070470D49C860704704200B49C96813
:1018200001F0010109B101200EE00849C96801F089
:10183000040109B1022007E00449C96801F0100160
:1018400009B1032000E0042070470000002002409E
:1018500023016745AB89EFCD00F8FF1F10B50446A3
:10186000F748844209D101214805FFF72EF80021ED
:101870004FF40010FFF729F808E001218805FFF771
:1018800024F800214FF48000FFF71FF810BD2DE968
:10189000F04385B004460D460026B1460427DFF824
:1018A000A483A6884FF6C07006406846FEF779FF0D
:1018B000DDF80880E448B8FBF0F01FFA80F946EA4A
:1018C0000906A68020884FF6FE7108402080002679
:1018D000DE49286888420CD828684000B8FBF0F040
:1018E00087B2042F00DA04273E4309F10100208467
:1018F00027E0E8884BF6FF71884206D1286800EBA4
:101900004000B8FBF0F087B209E0286800EBC001A6
:1019100001EB0010B8FBF0F087B247F48047C7F343
:101920000B0008B947F0010747F4004006434FF4A5
:10193000967009FB00F04FF47A7190FBF1F0401CB7
:101940002084A683208840F00100208026884FF65E
:10195000F5300640A8886989084306432680A8898F
:1019600029890843208105B0BDE8F08341F2883120
:101970000160002181804BF6FF71C180002101814F
:1019800041814FF480418181704721B1028842F04A
:101990000102028004E002884FF6FE731A400280C2
:1019A000704721B1828842F40062828004E082881C
:1019B0004FF2FF731A408280704721B1828842F44F
:1019C0008052828004E082884EF6FF731A40828043
:1019D000704721B1028842F48072028004E00288DC
:1019E0004FF6FF631A400280704721B1028842F42B
:1019F0000072028004E002884FF6FF531A40028012
:101A0000704721B1028842F48062028004E00288BB
:101A10004FF6FF331A40028070470A460021818941
:101A20004FF60173194002F0FE031943818170479C
:101A300021B1828942F00102828104E082894FF65D
:101A4000FE731A408281704721B1028842F0400241
:101A5000028004E002884FF6BF731A40028070478C
:101A60001AB183880B43838002E083888B43838091
:101A70007047018270470146088AC0B2704712B1B0
:101A800041F0010102E04FF6FE73194001827047F8
:101A900008B502460020009000920098084400908B
:101AA0000098008808BD21B1028842F400420280FB
:101AB00003E00288C2F30E0202807047B1F5006FA6
:101AC00004D1028842F40062028004E002884FF2EE
:101AD000FF731A4002807047B1F5005F04D102889D
:101AE00042F40052028004E002884DF6FF731A406F
:101AF0000280704721B1028842F48052028004E0E3
:101B000002884EF6FF731A4002807047B1F5006FED
:101B100004D1028842F40062028004E002884FF29D
:101B2000FF731A400280704721B1028842F0200200
:101B3000028004E002884FF6DF731A40028070478B
:101B40000146088B0012704721B1028842F0100252
:101B5000028004E002884FF6EF731A40028070475B
:101B600021B9028842F08002028004E002884FF628
:101B70007F731A4002807047B1F5804F05D0828B89
:101B80004BF6FF731A40828303E0828B42F480425B
:101B90008283704770B50246002400250023002090
:101BA000958A138B1B0445EA030626F07F4404EA5A
:101BB00001068E4201D1012000E0002070BD10B569
:101BC00001460020002300228B8A0A8B120443EA7C
:101BD000020424F07F4010BD0CB502460020002313
:101BE0000193009300920B0F019321F07F41019B21
:101BF0001BB1009B1433009303E0090C009B1833C6
:101C00000093009B1B680B400BB1012000E00020FB
:101C10000CBD002221F07F42D3438382704730B550
:101C2000024600200023948801F0E06504EA154391
:101C300021F07F41948A0C4054B14BB1012008E05F
:101C40000054004000127A0040420F00A0860100BC
:101C5000002030BD002221F07F42D34383827047B1
:101C600010B50446FE48844208D10121C014FEF795
:101C70001FFE0021E014FEF71BFEC4E0B4F1804F0C
:101C800008D101210846FEF720FE00210120FEF7C1
:101C90001CFEB8E0F348844208D101210220FEF77F
:101CA00014FE00210220FEF710FEACE0EE48844254
:101CB00008D101210420FEF708FE00210420FEF7D0
:101CC00004FEA0E0E948844208D101210820FEF783
:101CD000FCFD00210820FEF7F8FD94E0E448844272
:101CE00008D101211020FEF7F0FD00211020FEF7A1
:101CF000ECFD88E0DF48844208D101212020FEF776
:101D0000E4FD00212020FEF7E0FD7CE0DA4884427B
:101D100008D101214014FEF7CBFD00216014FEF72D
:101D2000C7FD70E0D548844209D10121C804FEF7FF
:101D3000BFFD00214FF40020FEF7BAFD63E0D0485C
:101D4000844209D101210805FEF7B2FD00214FF4BC
:101D50008010FEF7ADFD56E0CA48844209D101214A
:101D60004805FEF7A5FD00214FF40010FEF7A0FD89
:101D700049E0C548844208D101214020FEF7A5FD75
:101D800000214020FEF7A1FD3DE0C048844208D17B
:101D900001218020FEF799FD00218020FEF795FDAE
:101DA00031E0BB48844208D101218015FEF78DFD4A
:101DB0000021A015FEF789FD25E0B648844209D12F
:101DC00001210804FEF774FD00214FF48030FEF776
:101DD0006FFD18E0B048844209D101214804FEF7A4
:101DE00067FD00214FF40030FEF762FD0BE0AB48C9
:101DF000844208D101218804FEF75AFD00214FF4E6
:101E00008020FEF755FD10BD00220288944B9842B9
:101E10000ED0994B98420BD0B0F1804F08D0914B27
:101E2000984205D0904B984202D0904B984204D1F2
:101E30004FF68F731A404B881A438D4B984207D048
:101E40008C4B984204D04FF6FF431A40CB881A437C
:101E500002808B8883850B880385814B98420BD049
:101E6000854B984208D08B4B984205D08A4B9842BC
:101E700002D08A4B984201D10B7A038601238382D8
:101E8000704770B5002400220023058C4FF6FE76C3
:101E900035400584028C8388048B4FF68F752C4067
:101EA000B51E2C400D882C43751E2A400D892A43EF
:101EB0004D882A436A4DA8420BD06F4DA84208D0E6
:101EC000744DA84205D0744DA84202D0734DA8426B
:101ED00013D14FF6F7752A404D892A434FF6FB750B
:101EE0002A408D882A434FF6FF652B404FF6FF5559
:101EF0002B408D892B43CD892B4383800483CD8850
:101F00008586028470BD70B5002400220023058CF4
:101F10004FF6EF7635400584028C8388048B48F6B3
:101F2000FF752C404FF6FF452C400D884FF6FF768D
:101F300006EA05252C434FF6DF752A400D8906EA8F
:101F400005152A434D8806EA05152A43444DA84243
:101F500002D0494DA8421DD14FF67F752A404D89C8
:101F60004FF6FF7606EA05152A434FF6BF752A405D
:101F70008D8806EA05152A434FF6FF352B404FF2B0
:101F8000FF752B408D8906EA85052B43CD8906EA2E
:101F900085052B4383800483CD880587028470BD2B
:101FA00070B5002400220023058C4FF6FF663540F3
:101FB0000584028C8388848B4FF68F752C404FF6F6
:101FC000FC752C400D882C434FF6FF552A400D8997
:101FD0004FF6FF7606EA05252A434D8806EA0525D1
:101FE0002A431F4DA84202D0234DA8421DD14FF2D3
:101FF000FF752A404D894FF6FF7606EA05252A43EC
:102000004FF6FF352A408D8806EA05252A434EF60D
:10201000FF752B404DF6FF752B408D8906EA05159F
:102020002B43CD8906EA05152B4383808483CD8815
:102030008587028470BD70B5002200230024058CC2
:102040004EF6FF7635400584038C8488828B48F6F3
:10205000FF752A404FF6FF452A400D8820E000001A
:10206000002C01400004004000080040000C00402B
:10207000001000400014004000340140004C0140BA
:10208000005001400054014000180040001C004076
:102090000020004000400140004401400048014051
:1020A0004FF6FF7606EA05252A434DF6FF752B40CD
:1020B0000D8906EA05352B434D8806EA05352B4385
:1020C000FA4DA84202D0FA4DA84208D14BF6FF754E
:1020D0002C408D894FF6FF7606EA85152C438480C7
:1020E0008283CD88A0F84050038470BD828B4FF26C
:1020F000FF331A408283828B4FF6FF7303EA01237A
:102100001A4382837047F0B50C4615460022002121
:102110000026078C4EF6FF7C07EA0C070784828BAB
:10212000018C4FF6FF7707EA043640F6FF473A4046
:102130004FF6FF7707EA05273A434FF6FF7707EA9E
:1021400003373A43D94FB8420ED0D94FB8420BD0DB
:10215000B0F1804F08D0D74FB84205D0D64FB84223
:1021600002D0D64FB84206D14DF6FF77394046F43B
:102170008057394305E047F6FF57394044F480570C
:10218000394382830184F0BD828B4FF6F3731A408A
:102190008283828B0A4382837047F0B50C461546D2
:1021A000002200210026078C4FF6FF6C07EA0C077F
:1021B0000784828B018C4FF6FF7707EA04264FF6DF
:1021C0000C773A404FF6FF7707EA03172F433A435D
:1021D000B64FB8420ED0B64FB8420BD0B0F1804FD8
:1021E00008D0B44FB84205D0B34FB84202D0B34F75
:1021F000B84206D14FF6FF57394046F4807739434D
:1022000005E04FF2FF57394044F480773943828329
:102210000184F0BD028B4FF2FF331A400283028B20
:102220004FF6FF7303EA01231A4302837047F0B5A8
:102230000C461546002200210026078C4FF6EF7C45
:1022400007EA0C070784028B018C4FF6FF7707EA39
:10225000041640F6FF473A404FF6FF7707EA033788
:102260003A434FF6FF7707EA05273A438F4FB842C4
:102270000ED08F4FB8420BD0B0F1804F08D08D4FA9
:10228000B84205D08C4FB84202D08C4FB84206D12C
:102290004FF6DF77394046F01007394305E04FF637
:1022A0005F77394044F01007394302830184F0BD61
:1022B000028B4FF6F3731A400283028B0A430283A8
:1022C0007047F0B50C46154600220021068C4FF6EB
:1022D000FE773E400684028B018C4FF60C7632402E
:1022E0007E1C06EA03162E433243704EB0420ED0D7
:1022F0006F4EB0420BD0B0F1804F08D06D4EB0425F
:1023000005D06D4EB04202D06C4EB04206D14FF6B1
:10231000FD76314044F00106314305E04FF6F57695
:10232000314044F00106314302830184F0BD70B5B1
:1023300005460C465D4885420ED05D4885420BD06F
:10234000B5F1804F08D05B48854205D05A48854298
:1023500002D05A48854200D100E000BF208850B921
:102360002389A28861882846FFF7ABFFE1882846C9
:10237000FFF79EFF25E0208804280AD12389A28840
:1023800061882846FFF753FFE1882846FFF742FFA0
:1023900017E0208808280AD12389A2886188284666
:1023A000FFF7FBFEE1882846FFF7EEFE09E02389F0
:1023B000A28861882846FFF7A6FEE1882846FFF735
:1023C00095FE70BD2DE9F04105460C46002601271B
:1023D000608808B9022600E00026A088012801D103
:1023E000022700E001272088A0B92389A2886188FC
:1023F0002846FFF766FFE1882846FFF759FF238943
:102400003A4631462846FFF712FFE1882846FFF793
:1024100001FF13E02389A28861882846FFF707FFA0
:10242000E1882846FFF7F6FE23893A4631462846DA
:10243000FFF747FFE1882846FFF73AFFBDE8F08144
:102440000A884B881A438B881A43CB881A430B8916
:102450001A434B891A438B891A43A0F844207047CA
:102460004FF6FF71818000210180C180418001729F
:1024700070470021018041808180C18001814181BC
:102480008181C181704700210180418001218180CB
:102490000021C1800181704700210180418081803D
:1024A000C18001814181818170470000002C014081
:1024B000003401400004004000080040000C0040CF
:1024C00021B1028842F00102028004E002884FF646
:1024D000FE731A400280704731B1B0F8442042F4D4
:1024E0000042A0F8442005E0B0F84420C2F30E02F8
:1024F000A0F8442070471AB183890B43838102E01E
:1025000083898B43838170478182704741EA02034C
:10251000A0F8483070471AB183890B43838102E0E9
:1025200083898B438381704701894FF6F87211408C
:10253000018170470A46002101894FF68F731940C7
:1025400011430181704730B504460D4629462046A7
:10255000FFF7F0FF208940F00700208130BD2DE912
:10256000F04104460D4616461F46602D06D13B46F7
:10257000012231462046FFF75AFE05E03B46012284
:1025800031462046FFF79DFE29462046FFF7D2FF41
:10259000208940F007002081BDE8F08130B50C466D
:1025A00000210189C9B24FF6FF7505EA03251543DD
:1025B00025432943018130BD2DE9F04105460E46F2
:1025C00017469846002443463A4631462846FFF7C8
:1025D000E5FF2C894FF6F870044044F007044FF6ED
:1025E0008F70044044F070042C81BDE8F081F0B598
:1025F00004460D4616461F463B46324629462046AF
:10260000FFF7CCFF208940F480402081F0BD018598
:10261000828270470A46002101884FF68F73194065
:10262000114301807047F0B50C4615461E46002147
:10263000002200230189028B038C4FF6F877394082
:1026400021434FF6FC473A4040F201173A434FF618
:10265000DD773B404FF6FF7707EA06172F433B43F2
:10266000018102830384F0BD0A460021018B4FF6ED
:102670008F7319401143018370470A460021018B73
:1026800048F6FF7319404FF6FF7303EA022319431C
:10269000018370470A460021818B4FF68F731940E2
:1026A0001143818370470A460021818B48F6FF73EE
:1026B00019404FF6FF7303EA0223194381837047E1
:1026C00021B1028842F08002028004E002884FF6C5
:1026D0007F731A400280704721B1828842F0040261
:1026E000828004E082884FF6FB731A408280704734
:1026F00021B1828842F00802828004E082884FF68D
:10270000F7731A408280704721B1828842F001023B
:10271000828004E082884FF6FE731A408280704700
:102720000A460021018B4FF6F773194011430183CC
:1027300070470A460021018B4FF2FF7319404FF694
:10274000FF7303EA02231943018370470A460021FD
:10275000818B4FF6F77319401143818370470A4606
:102760000021818B4FF2FF7319404FF6FF7303EA8C
:1027700002231943818370470A460021018B4FF6DB
:10278000FB7319401143018370470A460021018BF6
:102790004FF6FF3319404FF6FF7303EA0223194344
:1027A000018370470A460021818B4FF6FB73194065
:1027B0001143818370470A460021818B4FF6FF3316
:1027C00019404FF6FF7303EA0223194381837047D0
:1027D0000A460021018B4FF67F7319401143018394
:1027E00070470A460021018BC1F30E014FF6FF73BB
:1027F00003EA02231943018370470A460021818BB3
:102800004FF67F7319401143818370470A460021B8
:10281000818BC1F30E014FF6FF7303EA02231943C4
:10282000818370470A460021018C4FF6FD731940E1
:102830001143018470470A460021018C4FF6F7735B
:1028400019401143018470470A460021018C4FF65C
:10285000DF7319404FF6FF7303EA02131943018433
:1028600070470A460021018C4FF67F7319404FF6DE
:10287000FF7303EA02131943018470470A460021DB
:10288000018C4FF6FF5319404FF6FF7303EA022302
:102890001943018470470A460021018C4FF2FF73EF
:1028A00019404FF6FF7303EA02231943018470476E
:1028B0000A460021018C4DF6FF7319404FF6FF7355
:1028C00003EA023319430184704730B50023012421
:1028D0008C40A3B2048C9C430484048C02FA01F55E
:1028E000ADB22C43048430BD30B5002304248C40A9
:1028F000A3B2048C9C430484048C02FA01F5ADB2AB
:102900002C43048430BD70B50346002000241846D3
:10291000183001258D40ACB21D8CA5431D8409B132
:10292000082909D100EB6100056825F070050560F4
:102930000568154305600EE00D1FC5F34E052844DC
:10294000056825F4E045056005684FF6FF7606EA60
:1029500002263543056070BD21B1028842F00202B3
:10296000028004E002884FF6FD731A40028070472F
:1029700021B1028842F00402028004E002884FF68E
:10298000FB731A400280704721B1828842F08002B6
:10299000828004E082884FF67F731A4082807047FD
:1029A00002884FF6F7731A40028002880A430280B9
:1029B000704782884FF68F731A40828082880A435C
:1029C0008280704702894FF6F8731A4002810289AB
:1029D0000A430281704702894FF67F731A400281D1
:1029E00002890A430281704781847047818570475C
:1029F000818670470187704781877047A0F8401033
:102A0000704702884FF6FF431A40028002880A434B
:102A1000028070470146888E70470146088F7047D4
:102A20000146888F70470146B1F840007047014663
:102A3000888C70470146088D704702460020138A33
:102A40000B400BB1012000E000207047CA43028216
:102A5000704730B50246002000230024158A05EA9D
:102A60000103958905EA010413B10CB1012000E0CE
:102A7000002030BDCA430282704700000CB5002020
:102A8000019000906C48006840F480306A4908600A
:102A900000BF6948006800F4003000900198401CB5
:102AA0000190009818B90198B0F5A06FF1D1624873
:102AB000006800F4003010B10120009001E0002017
:102AC00000900098012843D15C48006840F0100055
:102AD0005A4908600846006820F00300086008466C
:102AE000006840F00200086053484068524948605E
:102AF0000846406848600846406840F48060486086
:102B00000846406820F47C1048600846406840F45D
:102B1000E81048600846006840F08070086000BF18
:102B20004548006800F000700028F9D0424840682D
:102B300020F00300404948600846406840F0020029
:102B4000486000BF3C48406800F00C000828F9D1FC
:102B50000CBD10B5FFF792FF10BD10B536480068E8
:102B600040F0010034490860084640683449084094
:102B70003149486008460068324908402E490860DB
:102B80000846006820F4802008600846406820F469
:102B9000FE0048604FF41F008860FFF7DAFF4FF037
:102BA00000602949086010BD10B5002100200022F6
:102BB000214B5B6803F00C0121B1042906D00829E0
:102BC00028D107E0214B224C236027E01F4B204CEB
:102BD000236023E0184B5B6803F47010164B5B68AE
:102BE00003F48032022303EB904022B9194B434394
:102BF000174C23600DE0104B5B6803F4003323B1E6
:102C0000144B4343124C236003E0104B4343104CDE
:102C1000236003E00D4B0E4C236000BF00BF064B4A
:102C20005B68C3F303130C4CE15C094B1B68CB409E
:102C3000074C236010BD000000100240002002403D
:102C40000000FFF8FFFFF6FE08ED00E000127A003A
:102C50002000002000093D00240000207049714A36
:102C6000116000201AE0002200EB80036E4901EBA6
:102C7000C3010A6100EB80036B4901EBC3018A6168
:102C800000EB8003684901EBC301CA6100EB8003DC
:102C9000654901EBC3010A62411CC8B20328E2DBAB
:102CA00070472DE9F04F87B00746884691469A460F
:102CB000109C414638460AF0CEF8064694F82500A6
:102CC000012803D1304602F0C1FE0646BAF1000FDA
:102CD00011D1494630460AF0C4F8834621690AF00A
:102CE00068F82061606980F0004B0246594620690F
:102CF00002F02AF9206194F8240001280AD1304614
:102D0000A1690AF0A8F8834649460AF0DCF80546AE
:102D1000A66112E04146A0690AF09DF88346494643
:102D20000AF0D1F8054694F82500012803D1284679
:102D300002F08CFE0546C4F8188094F8250001289E
:102D400018D12946E0680AF08CF805902169A0683E
:102D50000AF087F80490314660680AF082F8039020
:102D600004990AF026F8834605990AF022F807B07C
:102D7000BDE8F08F414660680AF073F80590E0689E
:102D800006990AF06EF804902169A0680AF069F8C3
:102D90000290D4E900100AF064F8394600900AF075
:102DA00060F8019002990AF004F8039004990AF07F
:102DB00000F8834605990AF04EF8D8E700EB800347
:102DC000194A02EBC3021161704710B5002405E0F7
:102DD00000212046FFF7F2FF601CC4B2032CF7DB92
:102DE00010BD00EB8003104A02EBC302916100EBBF
:102DF00080030D4A02EBC302D16100EB80030A4A53
:102E000002EBC3021162704710B5002405E00021F7
:102E10002046FFF7E6FF601CC4B2032CF7DB10BDB1
:102E20003661023C380000207C0300202DE9F0418F
:102E300004460D464FF08041A04800680AF00BF8A8
:102E4000064621460AF0AAFA0AD24FF080409B4972
:102E500008609B4920460AF004F89A4908601AE085
:102E60004FF080419548006809F0A3FF06462146CF
:102E70000AF08AFA0AD24FF040409049086090491F
:102E8000204609F0EEFF8F49086004E000208D49DC
:102E900008608A4908608C498C48006809F0E1FFA5
:102EA000074688480168384609F083FF0646884986
:102EB0000AF009F88549086008460168284609F0C3
:102EC000CAFF0546BDE8F081F8B5044600208149F7
:102ED0000870814890F8E00001284DD17F4A1168C0
:102EE0007F4A906909F0BDFF05467C4A11687D4A1A
:102EF000106809F0B6FF064677485C3000907548C8
:102F00000378224629463046FFF7CBFE7649086013
:102F1000714AD2F8F410754A10680AF03FFA08D2E4
:102F20006D4AD2F8F410724A106809F042FF6E49F7
:102F300008606948D0F8F40080F000456B480168EB
:102F400028460AF02BFA08D2634AD2F8F410684AED
:102F5000106809F080FF64490860634800686449AC
:102F600008605D49D1F8D4000AF092F905465E493F
:102F70000868294603F067FE574890F8E1000128E9
:102F80004DD1564A5168564AD06909F06AFF054644
:102F9000524A5168534A506809F063FF06464E484A
:102FA000843000904B480378224629463046FFF78C
:102FB00078FE4D494860484AD2F8F4104B4A5068B0
:102FC0000AF0ECF908D2444AD2F8F410484A5068A2
:102FD00009F0EFFE444948603F48D0F8F40080F023
:102FE00000454248416828460AF0D8F908D23A4AD2
:102FF000D2F8F4103E4A506809F02DFF3A49486073
:10300000394840683A4948603349D1F8D8000AF055
:103010003FF9054634494868294603F02CFE2E48FE
:1030200090F8E200012848D12B4890F8E5000128EB
:1030300014D12A4881682F48006809F012FF06461B
:10304000294988683146FFF7F1FE05462A4881681C
:10305000284609F006FF2749086005E021488068F6
:1030600080F00040234908601C4A91681C4A106A9D
:1030700009F0F7FE0546194881681E48006809F006
:10308000F0FE06461448AC30009012480378224601
:1030900029463046FFF705FE1349886008468068D8
:1030A000134988600C49D1F8DC000AF0F1F80546B4
:1030B0000D498868294603F0F2FDF8BD580000204C
:1030C0003333B33E6000002000001C425C0000204F
:1030D0000000204234000020200300203C0000209B
:1030E00064040020840D0020AC040020A004002013
:1030F000B804002054000020480000202DE9F047CB
:103100004FF4A272AB49AC4809F028FEAA49086CFA
:103110000AF00AF906460BF01FFF044622460B464A
:103120000020A6490AF026F880460AF010F9A449C2
:103130000860A149D1F8E8004FF0804109F0C3FED2
:10314000A04908609C49D1F8EC004FF0804109F09B
:10315000BAFE9C4948609849D1F8F0004FF0804190
:1031600009F0B1FE97498860084601684FF07E502B
:1031700009F0A9FE94490860924841684FF07E50DA
:1031800009F0A1FE904948608E4881684FF07E505A
:1031900009F099FE8C498860BDE8F08770B5FEF7AC
:1031A0009EF83420FEF736FB8248FEF7DDF804284F
:1031B00010D100240AE0804A11597E4AA018FEF777
:1031C000A3F90546042D00D003E0241DB4F5A27F29
:1031D000F1D300BFFEF78FF8FFF790FF70BD70B519
:1031E0000446744805781CB97848007885427DD03B
:1031F00076480078704908700020486000216E48C9
:103200008160C16000206C49086100216A48416109
:10321000816100206849C8610021674801624162FC
:1032200000206549886200216348C1620163002073
:1032300061494863002160488163C1634FF07E505B
:103240005D49086462484864002088646048C86436
:1032500000200865022081F854005E4888654FF020
:103260007E50C86500215448016641668166C1668A
:1032700059490167002141678167C167012180F8D1
:10328000801080F881104FF07E51C0F8841000212A
:10329000C0F88810C0F88C10C0F89010C0F89410D6
:1032A0004D49C0F898100021C0F89C10C0F8A0103B
:1032B000C0F8A410012180F8A81080F8A9104FF0E0
:1032C0007E51C0F8AC104549C0F8B0104449C0F870
:1032D000B4104907C0F8B8100021C0F8BC103E492E
:1032E000C0F8C0100021C0F8C41000E061E0C0F8D0
:1032F000C810C0F8CC10012180F8D01080F8D1108F
:1033000038482D49C1F8D400C1F8D800C1F8DC0014
:10331000012081F8E00081F8E10081F8E20000205E
:1033200081F8E30081F8E40081F8E500082081F8E5
:10333000E6002D48C1F8E800C1F8EC00C1F8F00043
:103340002A48C1F8F400012081F8F80081F8F9005A
:1033500081F8FA002648C1F8FC00C1F800012548B0
:10336000C1F804012448C1F80801C1F80C01234840
:10337000C1F81001C1F814012148C1F81801C1F8C1
:103380001C012048C1F82001C1F82401C1F828011E
:103390000020C1F82C01C1F83001C1F834014FF010
:1033A0007A50C1F83801C1F83C01C1F84001FFF77B
:1033B000F5FE70BD00F80308200300200000F03F78
:1033C000E00000203C0000204800002064000020B5
:1033D0000000A04000803B450000C8426666A63F52
:1033E0009A99993F0000344200006041DB0F493F49
:1033F000C2B8323FF366DF3FF366DF3E368DA73F4C
:10340000DB0FC93FCDCCCC3D2DE9FE4396240020F7
:1034100000900190029000256FE004F040FC04F061
:10342000D9FB8B49B1F9000009F013FF0746894821
:103430000168384609F00FFD0646874909F011FD7D
:10344000864908608249B1F9020009F002FF074687
:1034500080484168384609F0FEFC06467E4909F07E
:1034600000FD7E4948607A49B1F9040009F0F1FE97
:10347000074678488168384609F0EDFC80F0004640
:103480007549304609F0EDFC74498860084680684B
:1034900080F000470846406880F0004839464046C2
:1034A0000BF060FA0646009909F083FC00906B4827
:1034B000806880F000476949086839460BF052FA85
:1034C0000646019909F075FC0190204609F0C1FEFD
:1034D00006463146009809F0F6FC6149086020462E
:1034E00009F0B7FE06463146019809F0ECFC5C494C
:1034F0004860022003F08DFE6D1CA5428DDB58480C
:10350000416856480161564800685449C860002126
:1035100052484161BDE8FE832DE9F04F87B0054672
:103520000C4617461E46B86880F00048786880F060
:103530000049414648460BF015FA0490B86880F0FF
:103540000048414638680BF00DFA05904549286857
:1035500009F087FC8146049909F02BFC804642491A
:1035600009F0B1FC28603F49686809F07AFC81469F
:10357000059909F01EFC80463B4909F0A4FC6860EF
:10358000706802906168686809F065FC8246374996
:1035900009F067FC81461099029809F062FC8246A6
:1035A000616809F006FC8046494609F002FC60604B
:1035B00060680BF00DFC8246B16809F052FC804651
:1035C000606820F0004B58460BF0FAFA82463168EA
:1035D00009F047FC8146414609F0EBFB0190216868
:1035E000286809F038FC8246204909F03AFC8046F8
:1035F0001099019809F035FC8246216809F0D9FB41
:103600008146414609F0D5FB206060680BF0E0FB85
:103610008246316809F025FC8046606820F0004B46
:1036200058460BF0CDFA8246B16809F01AFC814683
:10363000414609F010FC03901099039809F011FC21
:103640008046A16809F0B5FBA06007B0BDE8F08F27
:10365000BE010020201A002057E79C3A6404002095
:10366000C40400200000C6420000C84217B7513908
:103670002DE9F05F002421E0204609F0EAFD06462E
:10368000344909F0EEFB05464FF0894109F01BFC77
:10369000814648460BF09CFB83462F4909F0E1FB2D
:1036A000824609F041FE07460BF048FB054609F04B
:1036B0001CFE00B2294921F81400641CB4F5806F87
:1036C000DADBBDE8F09F2DE9F047054600212846EA
:1036D00009F064FE1DD81F49284609F0F4FB804616
:1036E0004FF0894109F0BDFB074609F0D1FD0446C2
:1036F000C01704EB90508012A4EB8026174931F9D3
:10370000160009F0A6FD0446134909F0DCFBBDE8EC
:10371000F08785F000490F49484609F0D4FB804600
:103720004FF0894109F09DFB074609F0B1FD0446C1
:10373000C01704EB90508012A4EB8026074931F9A2
:103740001610484209F085FD0446034909F0BBFB09
:10375000DDE70000DB0FC94000FEFF46D00400207B
:1037600070B5FE48D0F820114FF0804009F079FB89
:103770000546FB4909F075FB044621464FF07E5093
:1037800009F017FB054629464FF07E5009F09BFBD8
:10379000F449086021464FF07E5009F00AFB0546C7
:1037A00029464FF07E5009F08EFBEE4948602146D5
:1037B0004FF07E5009F0FDFA054621464FF07E504D
:1037C00009F049FB0646294609F07DFBE54988607A
:1037D0000020C8600861E148D0F824114FF0804013
:1037E00009F03FFB0546DE4909F03BFB0446214654
:1037F0004FF07E5009F0DDFA054629464FF07E5025
:1038000009F061FBD749486121464FF07E5009F02D
:10381000D0FA054629464FF07E5009F054FBD149B5
:10382000886121464FF07E5009F0C3FA05462146D3
:103830004FF07E5009F00FFB0646294609F043FB86
:10384000C849C8610021C74801624162C348D0F835
:1038500028114FF0804009F004FB0546C04909F0EB
:1038600000FB044621464FF07E5009F0A2FA0546BF
:1038700029464FF07E5009F026FBBA49886221465E
:103880004FF07E5009F095FA054629464FF07E50DC
:1038900009F019FBB349C86221464FF07E5009F088
:1038A00088FA054621464FF07E5009F0D4FA0646C4
:1038B000294609F008FBAB490863AB49A9484163B5
:1038C0008163A648D0F82C114FF0804009F0C9FA66
:1038D0000546A64909F0C5FA044621464FF07E5038
:1038E00009F067FA054629464FF07E5009F0EBFAD9
:1038F0009C49C86321464FF07E5009F05AFA0546AC
:1039000029464FF07E5009F0DEFA964908642146B8
:103910004FF07E5009F04DFA054621464FF07E509B
:1039200009F099FA0646294609F0CDFA8D4948640E
:1039300000218C488164C1648848D0F830114FF070
:10394000804009F08EFA0546884909F08AFA044653
:1039500021464FF07E5009F02CFA054629464FF0DB
:103960007E5009F0B0FA7F49086521464FF07E503D
:1039700009F01FFA054629464FF07E5009F0A3FAD8
:103980007849486521464FF07E5009F012FA054605
:1039900021464FF07E5009F05EFA0646294609F0AE
:1039A00092FA7049886500216E48C16501666B48CE
:1039B000D0F834114FF0804009F053FA05466B49B6
:1039C00009F04FFA044621464FF07E5009F0F1F914
:1039D000054629464FF07E5009F075FA6149486660
:1039E00021464FF07E5009F0E4F9054629464FF094
:1039F0007E5009F068FA5B49886621464FF07E5098
:103A000009F0D7F9054621464FF07E5009F023FA18
:103A10000646294609F057FA5249C866002151481E
:103A2000016741674D48D0F838114FF0804009F0E8
:103A300018FA05464D4909F014FA044621464FF09C
:103A40007E5009F0B6F9054629464FF07E5009F040
:103A50003AFA4449886721464FF07E5009F0A9F9A7
:103A6000054629464FF07E5009F02DFA3D49C867BA
:103A700021464FF07E5009F09CF9054621464FF053
:103A80007E5009F0E8F90646294609F01CFA354946
:103A9000C1F8800000213348C0F88410C0F88810B5
:103AA0002E48D0F83C114FF0804009F0DAF9054675
:103AB0002E4909F0D6F9044621464FF07E5009F010
:103AC00078F9054629464FF07E5009F0FCF9254962
:103AD000C1F88C0021464FF07E5009F06AF9054686
:103AE00029464FF07E5009F0EEF91E49C1F89000CA
:103AF00021464FF07E5009F05CF9054621464FF013
:103B00007E5009F0A8F90646294609F0DCF9154966
:103B1000C1F8940000211348C0F89810C0F89C1018
:103B20000E48D0F840114FF0804009F09AF9054650
:103B30000E4909F096F9044621464FF07E5009F0EF
:103B400038F9054629464FF07E5009F0BCF9054981
:103B5000C1F8A00021464FF07E5009E0200300206C
:103B60000000FA43D00C00206DE71CC10000484261
:103B700009F01FF9054629464FF07E5009F0A3F9D8
:103B80001D49C1F8A40021464FF07E5009F011F9FB
:103B9000054621464FF07E5009F05DF9064629465C
:103BA00009F091F91449C1F8A80000211248C0F8A1
:103BB000AC10C0F8B01070BD2DE9F04705460C46BA
:103BC0002169A06809F04DF98046E168606809F054
:103BD00048F981462846216809F043F9824649465A
:103BE00009F0E7F80746414609F035F90646E56071
:103BF00026613046BDE8F087D00C00202DE9F04F5B
:103C000087B08246FE480168504609F05CF982465A
:103C1000FC49504609F025F90446FB49FB48006879
:103C200009F01FF90546214609F0C3F88246F74816
:103C3000C0F800A04FF07E51504609F00CF90190F9
:103C400009F072FB21F00041CDE902010BF084F98B
:103C500080468946EE48006809F066FB42464B46BE
:103C6000CDE9040109F014FA06460022E94B09F0F7
:103C70000CFA044609F06BFB83464FF07E5200219C
:103C800001F062F9E449086007B0BDE8F08F2DE962
:103C9000FF4F8DB08B4692468AF00048404609F0AF
:103CA00043FB04460D468BF00048404609F03CFBC0
:103CB00022462B46CDE900010AF094FD064609F0A4
:103CC00046FB0C908AF00040019009F02DFB06465F
:103CD0000F460D9809F028FB804632463B460AF015
:103CE00081FD044609F033FB0B900C980AF068FF45
:103CF0000A900C980BF06CF809900B980AF060FF92
:103D000008900B980BF064F807904FF07E500690E7
:103D100000200590059880F00044204606990AF09E
:103D200021FE04904FF07C510C9809F09AF804465B
:103D30000AF046FF0A904FF07C510C9809F091F878
:103D400004460BF045F809904FF07C510B9809F0B0
:103D500088F804460AF034FF08904FF07C510B9825
:103D600009F07FF804460BF033F807904FF07C51D0
:103D7000049809F076F804460AF022FF03904FF009
:103D80007C51049809F06DF804460BF021F802907C
:103D90000799099809F065F80646029909F061F853
:103DA000044608990A9809F05CF80646039909F058
:103DB00058F80546214608F0FCFF98490860079925
:103DC0000A9809F04EF80646029909F04AF80446A6
:103DD000DDE9081009F045F80646039909F041F8B5
:103DE0000546214609F037F88D490860DDE90810DD
:103DF00009F037F80646029909F033F804460799A6
:103E00000A9809F02EF80646039909F02AF80546A3
:103E1000214608F0CEFF834908600799099809F008
:103E200020F80646039909F01CF8044608990A98F8
:103E300009F017F80646029909F013F805462146DD
:103E400009F009F87849086074480168006809F0C9
:103E500008F876490860724801687048006809F0FF
:103E600000F8734908606F4801686C48006808F002
:103E7000F8FF704908606C4801686848006808F0FD
:103E8000F0FF6D49086066480168006808F0E9FFC6
:103E90006A490860634801686148006808F0E1FF0A
:103EA00067490860604801685D48006808F0D9FF0C
:103EB000644908605B480168006808F0D2FF624905
:103EC0000860594801685748006808F0CAFF5F4910
:103ED000086055480168006808F0C3FF5C49086045
:103EE00011B0BDE8F08F0FB59FB05A48007858B9AF
:103EF000DDE92701CDE9000124A90EC92298FFF7C9
:103F0000C6FE01205349087052480078012875D137
:103F10004FF07C512A9808F0A4FF4F49086025997A
:103F2000084608F09EFF08902499084608F099FF7B
:103F300006902299084608F094FF0590069908F02B
:103F400038FF0790089908F034FF099009F0ECF960
:103F5000CDE90A010BF000F8CDE90C0109F0F7F901
:103F60001E9000211E9809F00FFA48D01E98FFF706
:103F700045FE3A48406C0D90274801680D9808F0BE
:103F800070FF374908603548806C0D902248016801
:103F90000D9808F066FF334908604FF07E501E9977
:103FA00008F091FF1D901D99229808F05AFF229069
:103FB0001D99249808F055FF24901D99259808F024
:103FC00050FF25901B4801681E48006808F043FF19
:103FD0004FF080410D9008F044FF17901B48016896
:103FE0001348006808F0E5FE4FF080410D9008F09E
:103FF00038FF1690114801680C4835E0FEE3D3E025
:10400000B4010020CDCCCC3D6666663FE8000020C0
:10401000E00000200000F03FE4000020A0000020AD
:10402000A4000020A8000020AC000020B000002068
:10403000B4000020B8000020BC000020C000002018
:10404000C4000020C8000020CC000020D0000020C8
:10405000D4000020DC000020D80000202003002035
:10406000980000209C000020006808F0F4FE0C90EE
:10407000FE4801680C9808F0EEFE0D90FC480168BF
:104080000D9808F096FE15902499159808F0E9FE11
:104090000D902599169808F0E4FE0C900D9908F003
:1040A000DAFEF44908602599179808F0DAFE0D90B9
:1040B0002299159808F0D5FE0C900D9908F0CBFECA
:1040C000ED4908602299169808F0CBFE0D902499CE
:1040D000179808F0C6FE0C900D9908F0BCFEE74951
:1040E0000860E7480168E348006808F0BAFE0D90F0
:1040F0001F9908F05EFE1F90E1480168DE480068E5
:1041000008F0AFFE0D90209908F053FE2090DC4897
:104110000168DA48006808F0A4FE0D90219908F0C3
:1041200048FE21900021D748006809F037F93BD2BA
:10413000D4480168CF48006808F093FE0D90D2483B
:1041400001680D9808F035FECF490860CD48016838
:10415000C948006808F085FE0D90CC4801680D98AC
:1041600008F027FEC9490860C6480168C3480068CE
:1041700008F077FE0D90C64801680D9808F019FE0A
:10418000C3490860C04801681F9808F012FE1F90DC
:10419000BE480168209808F00CFE2090BC480168D9
:1041A000219808F006FE21902899084608F059FE4B
:1041B00008902799084608F054FE0690269908466C
:1041C00008F04FFE0590069908F0F3FD0790089956
:1041D00008F0EFFD099009F0A7F8CDE90A010AF00F
:1041E000BBFECDE90C0109F0B2F81E902998012818
:1041F0007ED100211E9809F0C7F879D04FF07E508B
:104200001E9908F060FE1D901D99269808F029FE61
:1042100026901D99279808F024FE27901D9928982C
:1042200008F01FFE28909B4801689B48006808F032
:10423000C0FD0A90289908F014FE0C909748016878
:104240009748006808F007FE0890279908F009FED3
:104250000A90864801684FF07C5008F0FCFD0790FA
:1042600083480168079808F0F6FD0890269908F041
:10427000F8FD09900A9908F09CFD0B900C9908F044
:1042800098FD4FF080410D9008F0EBFD1C908548A3
:1042900001688548006808F0DEFD0A90289908F05A
:1042A000E0FD0C90814801684FF07C5008F0D3FD90
:1042B00007906F480168079808F0CDFD089027998E
:1042C00008F0CFFD0A90754801687548006808F04D
:1042D00070FD0890269908F0C4FD09900A9908F02D
:1042E00068FD0B900C9908F064FD4FF0804100E0F0
:1042F0007BE10D9008F0B5FD1B906C4801684FF014
:104300007C5008F0A8FD099058480168099808F009
:10431000A2FD0A90289908F0A4FD0C90614801685C
:104320006148006808F045FD0890279908F099FD5C
:104330000A90584801685848006808F08CFD0890B9
:10434000269908F08EFD09900A9908F032FD0B902D
:104350000C9908F02EFD4FF080410D9008F081FD82
:104360001A901B99084608F07CFD08901C99084695
:1043700008F077FD0790089908F01BFD099008F0F8
:10438000D3FFCDE90A010AF0E7FDCDE90C0108F001
:10439000DEFF19901A9818903E4801683E48006860
:1043A00008F059FD0A90189908F05BFD0C902F4811
:1043B00001684FF07C5008F04EFD09902C480168D0
:1043C000099808F048FD0A90199908F04AFD0B90E9
:1043D0000C9908F0EEFC4FF080410D9008F041FD83
:1043E0001490314801682F48006808F0E2FC0A90F8
:1043F000189908F036FD0C90284801682848006894
:1044000008F029FD0A90199908F02BFD0B900C99E2
:1044100008F0CFFC4FF080410D9008F022FD139082
:10442000224801684FF07C5008F015FD09900F48B4
:104430000168099808F00FFD0A90189908F011FD1D
:104440000C90154801681348006808F0B2FC0A9007
:10445000199908F006FD0B900C9908F0AAFC4FF092
:1044600080410D9008F0FDFC129021E0CC0000206E
:10447000D4000020680000206C00002070000020A4
:10448000980000209C00002074000020780000208C
:104490007C000020B8000020C8000020BC000020E4
:1044A000C4000020B4000020D0000020C000002084
:1044B0001399289808F0D5FC0D901299279808F0C8
:1044C000D0FC0C900D9908F0C6FCFE4908601299CA
:1044D000269808F0C6FC0D901499289808F0C1FCA5
:1044E0000C900D9908F0B7FCF749086014992798CB
:1044F00008F0B7FC0D901399269808F0B2FC0C90C8
:104500000D9908F0A8FCF1490860F148C06C01461B
:104510000C90EC48006808F0A4FC0D901F9908F07E
:1045200048FC1F90EA48C06C01460C90E6480068C1
:1045300008F097FC0D90209908F03BFC2090E4488F
:10454000C06C01460C90E148006808F08AFC0D90B0
:10455000219908F02EFC2190DD48006D00210D907E
:1045600008F01CFF41D2DA48006D01460C90D54896
:10457000006808F076FC0D90D64801680D9808F0A8
:1045800018FCD4490860D248006D01460C90CE4812
:10459000006808F066FC0D90CF4801680D9808F09F
:1045A00008FCCD490860CA48006D01460C90C74818
:1045B000006808F056FC0D90C84801680D9808F096
:1045C000F8FBC6490860C34801681F9808F0F1FB72
:1045D0001F90C1480168209808F0EBFB2090BF486D
:1045E0000168219808F0E5FB2190BD4821990068F9
:1045F00008F037FC0C90BB482099006808F031FCAB
:104600000A90B948006880F0004008901F9908F0AF
:1046100028FC09900A9908F01EFC0B900C9908F0F0
:104620001AFC0D90B14801680D9808F01AFC119021
:10463000AB482099006808F014FC0C90A948219917
:10464000006808F00EFC0A90A94801681F9808F05D
:1046500008FC09900A9908F0ACFB0B900C9908F043
:10466000FAFB0D90A14801680D9808F0FAFB109034
:104670009B4801681F9808F0F4FB0C909A48219918
:10468000006808F0EEFB0A9099482099006808F04D
:10469000E8FB09900A9908F0DEFB0B900C9908F0F2
:1046A00088FB0D90914801680D9808F0DAFB0F9097
:1046B0008C4801681F9808F0D4FB0C908A48209918
:1046C000006808F0CEFB0A9089482199006808F03C
:1046D000C8FB09900A9908F06CFB0B900C9908F044
:1046E000BAFB0D90814801680D9808F0BAFB0E9056
:1046F0007F481199006808F05CFB7D4908607A48A2
:104700001099006808F055FB7749086075480F99C3
:10471000006808F04EFB7349086071480E99006804
:1047200008F047FB6E49086008460168006808F019
:1047300098FB06906B480168006808F092FB0490B3
:1047400069480168006808F08CFB029068480168BD
:10475000006808F086FB0190029908F02AFB03909C
:10476000049908F026FB0590069908F022FB0790B3
:1047700008F0DAFDCDE908010AF0EEFB02460B462F
:10478000CDE90A0100205B4908F0F4FCCDE90C01F9
:1047900008F0DDFD1D9056481D99006808F061FB8A
:1047A0005349086050481D99006808F05AFB4E496B
:1047B00008604C481D99006808F053FB494908609F
:1047C00047481D99006808F04CFB45490860484877
:1047D0000168006808F045FB4749086042480168E5
:1047E0004348006808F03DFB444908603D480168C3
:1047F0003F48006808F035FB414900E0EAE0086006
:10480000374801683A48006808F02BFB3D490860CA
:1048100035480168006808F024FB3B4908603148CE
:1048200001683148006808F01CFB384908602C48D2
:1048300001682D48006808F014FB354908602948D4
:104840000168006808F00DFB3249086024480168DF
:104850002448006808F005FB2F49086020480168DB
:10486000006808F0FEFA2D490860274801682248D0
:10487000006808F0F0FA0A90264801680A9808F0E3
:10488000EAFA0B90254801680B9808F092FA0D900F
:10489000214801681948006808F08BFA4FF0804100
:1048A0000B9008F0DEFA0C900D990AF05BF81C49A9
:1048B0008861134801681648006808F0CCFA4FF088
:1048C00080412FE08000002084000020880000202C
:1048D000200300208C000020900000209400002085
:1048E000AC000020A8000020A4000020D800002078
:1048F000A00000200000F03FB0000020B400002025
:10490000B8000020BC000020C0000020C40000202F
:10491000C8000020CC000020D0000020D4000020DF
:10492000640400200C9008F09CFA0D9009F0B8FD8A
:1049300080F000412848C161284801682848006883
:1049400008F037FA0A90274801680A9808F083FAB5
:104950000B90254801680B9808F07DFA0D902348CC
:1049600001682348006808F024FA4FF080410B905A
:1049700008F077FA0C900D9909F0F4FF16490862D7
:10498000084680691B490B9008F06BFA0C9008F000
:104990007FFC01460D9018A001F00EFA0E48C06988
:1049A00014490B9008F05DFA0C9008F071FC014678
:1049B0000D9014A001F000FA0748006A0D490B9011
:1049C00008F04FFA0C9008F063FC01460D9010A01F
:1049D00001F0F2F923B000BD64040020C000002003
:1049E000B0000020CC000020D4000020BC0000203B
:1049F000C40000200000C8420A20524F4C4C202521
:104A000064200000205049544348202564200000C1
:104A100020594157202564200A00000070B5FE4847
:104A20000078012826D100240AE0204602F0DBFAB3
:104A3000054608F017FCF94941F82400601CC4B28F
:104A4000032CF2DBF64A916DF44A106808F003FA81
:104A5000F2490860F24A916DF04A506808F0FBF99B
:104A6000EE494860EE4A916DEC4A906808F0F3F91F
:104A7000EA498860002405E0EA48005DEA490855F3
:104A8000601CC4B2032CF7DB00243EE0E34951F87C
:104A90002400E64908F078FC0ED8E04951F82400DB
:104AA000E34908F07BFC07D80020DC4941F82400EA
:104AB0000120DC49085526E00020DA490855D7498D
:104AC00051F82400002108F069FC0ED2D34951F8B6
:104AD0002400D64908F0BFF905464FF07E5108F092
:104AE000C0F9CE4941F824000DE0CC4951F824002A
:104AF000CE4908F05EF905464FF07E5108F0B1F955
:104B0000C64941F82400601CC4B2032CBEDBC34973
:104B10000868C84908F0A5F9C04908604868C6494E
:104B200008F09FF9BD4948608868C24908F099F9C2
:104B3000BA498860BA4890F8F80001284BD1086853
:104B4000002108F02BFC1AD8B54AD2F80C11BB4A48
:104B5000106808F019FC12D8B14AD2F8FC10AF4A1C
:104B6000106808F07EF90646B54908F07AF905465E
:104B7000B2480168284608F01CF9B0490860A74906
:104B80000868002108F000FC1DD2A548D0F80801F3
:104B900080F00045A9480168284608F0F5FB12D8C6
:104BA0009F4AD2F8FC109D4A106808F05AF9064650
:104BB000A34908F056F90546A0480168284608F0C0
:104BC000F8F89E4908609D4908689E49FEF7F4FF81
:104BD0009A49086020E091490868002108F0DEFB4E
:104BE00009D88F4AD2F80C118C4A106808F039F9AC
:104BF0009249086008E08A4AD2F80811874A10688A
:104C000008F02FF98D4908608C4908688D493C31BE
:104C1000FEF7D2FF894908608148D0F8180180F07A
:104C200000457F49D1F80C2184490868294600F0E5
:104C30008BF9824908607A4890F8F90001284DD133
:104C400076494868002108F0A9FB1AD8744AD2F8BE
:104C500014117A4A506808F097FB12D8704AD2F8BB
:104C600000116E4A506808F0FCF80646744908F0D6
:104C7000F8F8054671484168284608F09AF86F49E7
:104C8000486066494868002108F07EFB1DD26448F0
:104C9000D0F8100180F0004568484168284608F0C7
:104CA00073FB12D85E4AD2F800115C4A506808F0D3
:104CB000D8F80646624908F0D4F805465F484168CE
:104CC000284608F076F85D4948605C4948685D49C7
:104CD0001431FEF771FF5949486025E04F49486893
:104CE000002108F05BFB08D84D4AD2F814114B4A5A
:104CF000506808F0B6F851494860484948680021B2
:104D000008F042FB08D2464AD2F81011434A5068D4
:104D100008F0A7F84949486048494868494950316E
:104D2000FEF74AFF454948603D48D0F8100180F041
:104D300000453B49D1F8142140494868294600F014
:104D400003F93E494860364890F8FA0001284DD1F1
:104D500032498868002108F021FB1AD8304AD2F87D
:104D60001C11364A906808F00FFB12D82C4AD2F872
:104D700004112A4A906808F074F80646304908F091
:104D800070F805462D488168284608F012F82B492E
:104D9000886022498868002108F0F6FA1DD2204870
:104DA000D0F8180180F0004524488168284608F0B2
:104DB000EBFA12D81A4AD2F80411184A906808F08F
:104DC00050F806461E4908F04CF805461B48816815
:104DD000284607F0EEFF1949886018498868194984
:104DE0002831FEF7E9FE154988603DE00B498868E7
:104DF000002108F0D3FA08D8094AD2F81C11074A52
:104E0000906808F02EF80D498860044988680021F0
:104E100008F0BAFA21D217E030010020900D0020EE
:104E200020030020EC000020EF0000200000C04123
:104E30000000C0C16F12833A6F1283BA840D002044
:104E40000AD7A33C0C0D00200F4AD2F818110F4AC4
:104E5000906808F006F80E4988600D4988680D4989
:104E6000FEF7AAFE0A4988600748D0F8180180F0CA
:104E700000450549D1F81C2105498868294600F0FC
:104E800063F80349886070BD20030020900D002066
:104E9000840D0020700D0020704710A000F08CFFE2
:104EA00000BFFEE711A000F087FF00BFFEE718A0DB
:104EB00000F082FF00BFFEE71CA000F07DFF00BFF6
:104EC000FEE770477047704710B506F0CBF810BD8D
:104ED00010B54FF48020FCF7DAF910BD0A484152B2
:104EE00044204641554C542121210A000A4D454D8C
:104EF0004F5259204D414E4147454D454E54204556
:104F00005843455054494F4E2121210A00000000CA
:104F10000A425553204641554C542045584345506C
:104F200054494F4E2121210A000000000A555341E7
:104F30004745204641554C54204558434550544917
:104F40004F4E2121210A000070B506460D46144639
:104F50002946304608F018FA01D2284670BD21468D
:104F6000304608F01BFA01D22046F7E73046F5E755
:104F70002DE9F04705460E46DDE9087C002007E0F4
:104F80004FF0000823F8108000F1010808F0FF003E
:104F900005FB02F88045F3DC002027E000241FE039
:104FA000002117E000FB021833F9188000FB0649C6
:104FB00037F9199004FB021A3CF91AA009FB0A8878
:104FC0000FFA88F800FB021923F8198001F1010893
:104FD00008F0FF019142E5DB04F1010808F0FF044D
:104FE000B442DDDB00F1010808F0FF00A842D5DB88
:104FF000BDE8F08710B504460021204608F0CEF940
:1050000005D84FF07C51204607F0D3FE10BD4FF07D
:105010007C51204607F01FFFF8E770B50446FBF708
:1050200097F80546FE4800682044A84203D908F0D6
:1050300095FC06210160FA4800682044F8490860A0
:10504000002070BD0FB5D1B0002050902AE00021A3
:1050500033AA509842F8201036AA509842F82010EF
:1050600039AA509842F8201042AA509842F82010CD
:1050700045AA509842F8201048AA509842F82010AB
:105080004BAA509842F8201000225698801D509943
:1050900020F811205099569820F811205098401C63
:1050A000C0B2509050980228D1DD0020309031904D
:1050B00032904F9051E10020509084E04F9800EBE7
:1050C0004001519800EB8101509851F820000B905D
:1050D0004F9800EB4001519800EB8101509851F836
:1050E00020000A900B9907F0BCFE0DAA509942F8D7
:1050F00021004F9800EB4001519800EB810150983E
:1051000051F820004BA90B90509851F820000A90BC
:105110000B9907F04EFE4BAA509942F821000DA9B9
:10512000509851F8200048A90B90509851F8200051
:105130000A900B9907F03DFE48AA509942F82100C9
:105140004F9800EB4001519800EB8101509851F8C5
:1051500020000DA90A90509851F8200009900A9952
:1051600007F07FFE45A90B90509851F820000146AA
:105170000A900B9807F01DFE45AA509942F82100AD
:105180004F9800EB4001519800EB8101509851F885
:10519000200000210A9008F001F901D2012000E06E
:1051A000002000EB4001569800EB4101509801EBC4
:1051B00040000B900088401C81B20B9801805098F1
:1051C000401CC0B25090509802287FF777AF4F989C
:1051D00000EB4001519800EB810040680A904F9825
:1051E00000EB4001519850F8210009900A9907F00E
:1051F00038FE0B90329907F0DCFD32904F9800EBAF
:105200004001519800EB810080680A904F9800EBB4
:105210004001519850F8210009900A9907F021FEA9
:105220000B90319907F0C5FD31904F9800EB40018C
:10523000519800EB810080680A904F9800EB400184
:10524000519800EB8100406809900A9907F009FE27
:105250000B90309907F0ADFD30904F9800EB400176
:10526000519800EB810040680A900D9809900A99C6
:1052700007F0F7FD0B903A9801460A900B9807F05B
:1052800098FD3A904F9800EB4001519800EB810057
:1052900080680A900D9809900A9907F0E2FD0B903A
:1052A0003B9801460A900B9807F083FD3B904F987E
:1052B00000EB4001519850F821000A900E98099097
:1052C0000A9907F0CEFD0B90369801460A900B988C
:1052D00007F06FFD36904F9800EB4001519800EBBE
:1052E000810080680A900E9809900A9907F0B9FD2C
:1052F0000B90389801460A900B9807F05AFD3890A9
:105300004F9800EB4001519850F821000A900F98F7
:1053100009900A9907F0A5FD0B90339801460A9071
:105320000B9807F046FD33904F9800EB40015198E1
:1053300000EB810040680A900F9809900A9907F0E5
:1053400090FD0B90349801460A900B9807F031FDC0
:1053500034904F98401C80B24F9052994F98884299
:10536000FFF6A9AE529807F07DFF01460B904FF073
:105370007E5007F0A8FD0C900020509027E04BA92C
:10538000509851F820000B900C9907F06AFD42AA42
:10539000509942F8210048A9509851F820000B90EC
:1053A0000C9907F05EFD3FAA509942F8210045A9EB
:1053B000509851F820000B900C9907F052FD3CAA30
:1053C000509942F821005098401CC0B2509050981B
:1053D0000228D4DD0C99329807F043FD2F900C99E8
:1053E000319807F03EFD2E900C99309807F039FD6A
:1053F0002D903A980B900C9907F033FD28903B982C
:105400000B900C9907F02DFD2C9036980B900C9971
:1054100007F027FD2B9038980B900C9902E00000C4
:10542000F400002007F01DFD2A9033980B900C9992
:1054300007F017FD299034980B900C9907F011FD97
:10544000279040980A903F9809900A9907F0B1FC7C
:105450000B90419801460A900B9807F0AAFC149013
:105460004FF07C50149907F0FCFC13903C98099085
:105470002B9907F09EFC0A90299907F09AFC4FF0AF
:1054800041410B9007F0EDFC12903D9801460990C8
:10549000289807F08EFC0A90279907F08AFC4FF0B5
:1054A00041410B9007F0DDFC11902A992C9807F0F0
:1054B00080FC0A903E98014609900A9807F079FC12
:1054C0004FF041410B9007F0CCFC10900020509021
:1054D0001AE042A9509851F820101EAA42F8201054
:1054E0001EA9509851F820000B90509851F82000B8
:1054F0000A900B9907F0B5FC1BAA509942F82100BD
:105500005098401CC0B2509050980228E1DD1C9881
:105510000A901B9809900A9907F04BFC0B901D9874
:1055200001460A900B9807F044FC269020980890BA
:105530000146079007F095FC0A901F9806900146D7
:10554000059007F08EFC08901E9806900146059085
:1055500007F087FC0790089907F02BFC09900A993F
:1055600007F027FC4FF040410B9007F07AFC2590A4
:105570002599149807F01DFC0B90269907F019FC4B
:1055800021902199269807F066FC4FF07C510B90F2
:1055900007F067FC24902499139807F00AFC2390E5
:1055A0002199269807F057FC0990259907F001FCEE
:1055B0000A90149907F0FDFB4FF082410B9007F021
:1055C00050FC229000204E9000BF0020509047E0F9
:1055D0001EA9509851F82000014606904FF08040D7
:1055E00007F03FFC42A90790509851F8200001466F
:1055F0000690079807F035FC1BA90890509851F8C1
:10560000200001460790089807F028FC3FA9099060
:10561000509851F8200001460890099807F0C9FBFE
:105620004FF083410A9007F01CFC0B90229907F081
:10563000C0FB15AA509942F8210015A9509851F8BD
:10564000200000210B9007F09FFE05D14FF07E5106
:1056500015AA509842F820105098401CC0B25090A3
:1056600050980228B4DD439803901F980290039944
:1056700007F0F7FB0590449801902098009001995D
:1056800007F0EFFB03903F980190239907F091FBFF
:105690000290039907F0DFFB0490059907F0DBFB0C
:1056A00006901E9801460590069807F0DAFB0890D0
:1056B0001B9880F000400390249907F0CCFB0490E5
:1056C000429801460390049807F0CBFB069020987F
:1056D00002902E9907F0C5FB04901F9802902F9915
:1056E00007F0BFFB0390049907F063FB0590069950
:1056F00007F05FFB0790089907F05BFB4FF08341D1
:10570000099007F0AEFB0A90129907F052FB0B903C
:10571000159801460A900B9807F0D5FB80F00040E1
:1057200018904498039020980290039907F099FBF1
:105730000590429801901E980090019907F091FB06
:10574000039040980190239907F033FB029003994E
:1057500007F081FB0490059907F07DFB06901F98E8
:1057600001460590069807F07CFB08901C9880F095
:1057700000400390249907F06EFB04904398014683
:105780000390049807F06DFB0690209802902D99E5
:1057900007F067FB04901E9802902F9907F061FBB9
:1057A0000390049907F005FB0590069907F001FBAB
:1057B0000790089907F0FDFA4FF08341099007F030
:1057C00050FB0A90119907F0F4FA0B9016980146D5
:1057D0000A900B9807F077FB80F0004019904398EF
:1057E00003901F980290039907F03BFB05904298A5
:1057F00001901E980090019907F033FB03904198A7
:105800000190239907F0D5FA0290039907F023FB42
:105810000490059907F01FFB06902098014605901B
:10582000069807F01EFB08901D9880F0004003903A
:10583000249907F010FB04904498014603900498C3
:1058400007F00FFB06901F9802902D9907F009FBB7
:1058500004901E9802902E9907F003FB0390049980
:1058600007F0A7FA0590069907F0A3FA07900899A0
:1058700007F09FFA4FF08341099007F0F2FA0A907F
:10588000109907F096FA0B90179801460A900B981A
:1058900007F019FB80F000401A900020509024E09F
:1058A00018A9509851F820001EA90B90509851F853
:1058B00020000A900B9907F07CFA1EAA509942F832
:1058C00021001EA9509851F820000B90509851F8D3
:1058D00020000A900B9907F0C4FA1BAA509942F8CD
:1058E00021005098401CC0B2509050980228D7DD3B
:1058F0001C980A901B9809900A9907F05AFA0B9085
:105900001D9801460A900B9807F053FA2690449888
:10591000089020980790089907F0A3FA0A904398F6
:1059200006901F980590069907F09BFA08904298F8
:1059300006901E980590069907F093FA079008992B
:1059400007F037FA09900A9907F033FA4FF040410F
:105950000B9007F086FA25902599149807F029FAFC
:105960000B90269907F025FA21902199269807F0A7
:1059700072FA4FF07C510B9007F073FA249024993F
:10598000139807F016FA23902199269807F063FAE6
:105990000990259907F00DFA0A90149907F009FA71
:1059A0004FF082410B9007F05CFA22904E98401C19
:1059B00080B24E904E983228FFF607AE53994E981B
:1059C000884221DA1A9808900146079007F049FAB0
:1059D0000A90199806900146059007F042FA08903F
:1059E000189806900146059007F03BFA0790089931
:1059F00007F0DFF909900A9907F0DBF90B90549949
:105A000007F0CCFCFFF4E1AD002050900BE01EA9A4
:105A1000509851F820205099579840F821205098DC
:105A2000401CC0B2509050980228F0DD219807F039
:105A30007BFCCDE9080109F08FFACDE90A0107F0F6
:105A400086FC589908604E9855B000BD10B50446C4
:105A50008549204607F0A2FC04D88449204607F077
:105A6000FAF910BD8249204607F08EFC04D27F4926
:105A7000204607F09EF9F4E72046F2E72DE9F04FC3
:105A800087B082460020069001E00AF1010A9AF8E8
:105A900000002028F9D09AF800000928F5D04FF02E
:105AA0000008DFF8D0919AF800002D2804D1DFF823
:105AB000C8910AF1010A05E09AF800002B2801D1EB
:105AC0000AF1010A0026374617E09AF80010A1F102
:105AD000300007F0CCFB0022684BCDE904013046D2
